{
  "address": "0xCf7Ed3AccA5a467e9e704C703E8D87F634fB0Fc9",
  "abi": [
    {
      "inputs": [
        {
          "internalType": "address",
          "name": "vrfCoordinatorV2",
          "type": "address"
        },
        {
          "internalType": "uint64",
          "name": "subId",
          "type": "uint64"
        },
        {
          "internalType": "bytes32",
          "name": "keyHash",
          "type": "bytes32"
        },
        {
          "internalType": "uint256",
          "name": "interval",
          "type": "uint256"
        },
        {
          "internalType": "uint32",
          "name": "cbGasLimit",
          "type": "uint32"
        }
      ],
      "stateMutability": "nonpayable",
      "type": "constructor"
    },
    {
      "inputs": [],
      "name": "ErrorPayingWinner",
      "type": "error"
    },
    {
      "inputs": [
        {
          "internalType": "address",
          "name": "have",
          "type": "address"
        },
        {
          "internalType": "address",
          "name": "want",
          "type": "address"
        }
      ],
      "name": "OnlyCoordinatorCanFulfill",
      "type": "error"
    },
    {
      "inputs": [],
      "name": "RaffleHasNoBidders",
      "type": "error"
    },
    {
      "inputs": [
        {
          "internalType": "uint256",
          "name": "msgValue",
          "type": "uint256"
        },
        {
          "internalType": "uint256",
          "name": "requiredValue",
          "type": "uint256"
        }
      ],
      "name": "RaffleInsuficientFunds",
      "type": "error"
    },
    {
      "inputs": [],
      "name": "RaffleNotOpen",
      "type": "error"
    },
    {
      "inputs": [
        {
          "internalType": "uint256",
          "name": "currentBalance",
          "type": "uint256"
        },
        {
          "internalType": "uint256",
          "name": "numPlayers",
          "type": "uint256"
        },
        {
          "internalType": "uint256",
          "name": "raffleState",
          "type": "uint256"
        }
      ],
      "name": "RaffleUpkeepNotNeeded",
      "type": "error"
    },
    {
      "inputs": [],
      "name": "Unauthorized",
      "type": "error"
    },
    {
      "anonymous": false,
      "inputs": [
        {
          "indexed": true,
          "internalType": "address",
          "name": "player",
          "type": "address"
        }
      ],
      "name": "RaffleEnter",
      "type": "event"
    },
    {
      "anonymous": false,
      "inputs": [
        {
          "indexed": true,
          "internalType": "uint256",
          "name": "requestId",
          "type": "uint256"
        }
      ],
      "name": "RequestedRaffleWinner",
      "type": "event"
    },
    {
      "anonymous": false,
      "inputs": [
        {
          "indexed": true,
          "internalType": "address",
          "name": "player",
          "type": "address"
        }
      ],
      "name": "WinnerPicked",
      "type": "event"
    },
    {
      "stateMutability": "payable",
      "type": "fallback"
    },
    {
      "inputs": [
        {
          "internalType": "address",
          "name": "_newAdmin",
          "type": "address"
        }
      ],
      "name": "addAdmin",
      "outputs": [],
      "stateMutability": "nonpayable",
      "type": "function"
    },
    {
      "inputs": [],
      "name": "buyTickets",
      "outputs": [],
      "stateMutability": "payable",
      "type": "function"
    },
    {
      "inputs": [
        {
          "internalType": "uint256",
          "name": "newTixCost",
          "type": "uint256"
        }
      ],
      "name": "changeTicketCost",
      "outputs": [],
      "stateMutability": "nonpayable",
      "type": "function"
    },
    {
      "inputs": [
        {
          "internalType": "bytes",
          "name": "",
          "type": "bytes"
        }
      ],
      "name": "checkUpkeep",
      "outputs": [
        {
          "internalType": "bool",
          "name": "upkeepNeeded",
          "type": "bool"
        },
        {
          "internalType": "bytes",
          "name": "",
          "type": "bytes"
        }
      ],
      "stateMutability": "view",
      "type": "function"
    },
    {
      "inputs": [
        {
          "internalType": "uint256",
          "name": "index",
          "type": "uint256"
        }
      ],
      "name": "getContestant",
      "outputs": [
        {
          "internalType": "address",
          "name": "",
          "type": "address"
        }
      ],
      "stateMutability": "view",
      "type": "function"
    },
    {
      "inputs": [],
      "name": "getInterval",
      "outputs": [
        {
          "internalType": "uint256",
          "name": "",
          "type": "uint256"
        }
      ],
      "stateMutability": "view",
      "type": "function"
    },
    {
      "inputs": [],
      "name": "getLastTimeStamp",
      "outputs": [
        {
          "internalType": "uint256",
          "name": "",
          "type": "uint256"
        }
      ],
      "stateMutability": "view",
      "type": "function"
    },
    {
      "inputs": [],
      "name": "getNumContestants",
      "outputs": [
        {
          "internalType": "uint256",
          "name": "",
          "type": "uint256"
        }
      ],
      "stateMutability": "view",
      "type": "function"
    },
    {
      "inputs": [],
      "name": "getNumTickets",
      "outputs": [
        {
          "internalType": "uint256",
          "name": "",
          "type": "uint256"
        }
      ],
      "stateMutability": "view",
      "type": "function"
    },
    {
      "inputs": [],
      "name": "getNumWords",
      "outputs": [
        {
          "internalType": "uint256",
          "name": "",
          "type": "uint256"
        }
      ],
      "stateMutability": "pure",
      "type": "function"
    },
    {
      "inputs": [],
      "name": "getRaffleState",
      "outputs": [
        {
          "internalType": "enum Raffle.RaffleState",
          "name": "",
          "type": "uint8"
        }
      ],
      "stateMutability": "view",
      "type": "function"
    },
    {
      "inputs": [],
      "name": "getRecentWinner",
      "outputs": [
        {
          "internalType": "address",
          "name": "",
          "type": "address"
        }
      ],
      "stateMutability": "view",
      "type": "function"
    },
    {
      "inputs": [],
      "name": "getRequestConfirmations",
      "outputs": [
        {
          "internalType": "uint256",
          "name": "",
          "type": "uint256"
        }
      ],
      "stateMutability": "pure",
      "type": "function"
    },
    {
      "inputs": [],
      "name": "getTicketCost",
      "outputs": [
        {
          "internalType": "uint256",
          "name": "",
          "type": "uint256"
        }
      ],
      "stateMutability": "view",
      "type": "function"
    },
    {
      "inputs": [],
      "name": "getUserTickets",
      "outputs": [
        {
          "internalType": "uint256",
          "name": "",
          "type": "uint256"
        }
      ],
      "stateMutability": "view",
      "type": "function"
    },
    {
      "inputs": [],
      "name": "isUserAdmin",
      "outputs": [
        {
          "internalType": "bool",
          "name": "",
          "type": "bool"
        }
      ],
      "stateMutability": "view",
      "type": "function"
    },
    {
      "inputs": [
        {
          "internalType": "bytes",
          "name": "",
          "type": "bytes"
        }
      ],
      "name": "performUpkeep",
      "outputs": [],
      "stateMutability": "nonpayable",
      "type": "function"
    },
    {
      "inputs": [
        {
          "internalType": "uint256",
          "name": "requestId",
          "type": "uint256"
        },
        {
          "internalType": "uint256[]",
          "name": "randomWords",
          "type": "uint256[]"
        }
      ],
      "name": "rawFulfillRandomWords",
      "outputs": [],
      "stateMutability": "nonpayable",
      "type": "function"
    },
    {
      "inputs": [
        {
          "internalType": "address",
          "name": "",
          "type": "address"
        }
      ],
      "name": "tickets",
      "outputs": [
        {
          "internalType": "uint256",
          "name": "",
          "type": "uint256"
        }
      ],
      "stateMutability": "view",
      "type": "function"
    },
    {
      "stateMutability": "payable",
      "type": "receive"
    }
  ],
  "transactionHash": "0xdf139a5925e8dd702caec10575ba1590ced71fe84ae2da6ebdfc3b515cf20b9f",
  "args": [
    "0x5FbDB2315678afecb367f032d93F642f64180aa3",
    "1",
    "0x79d3d8832d904592c0bf9818b621522c988bb8b0c05cdc3b15aea1b6e8db0c15",
    "30",
    "500000"
  ],
  "numDeployments": 1,
  "solcInputHash": "cea9d350606ee7b21de1cdec3129a38e",
  "bytecode": "0x6101406040526611c37937e0800060035560006007553480156200002257600080fd5b5060405162001ff538038062001ff583398181016040528101906200004891906200020a565b848073ffffffffffffffffffffffffffffffffffffffff1660808173ffffffffffffffffffffffffffffffffffffffff1660601b81525050508473ffffffffffffffffffffffffffffffffffffffff1660a08173ffffffffffffffffffffffffffffffffffffffff1660601b815250508260c081815250508161012081815250508367ffffffffffffffff1660e08167ffffffffffffffff1660c01b8152505060008060006101000a81548160ff0219169083600181111562000110576200010f620002fe565b5b0217905550426001819055508063ffffffff166101008163ffffffff1660e01b815250506001600460003373ffffffffffffffffffffffffffffffffffffffff1673ffffffffffffffffffffffffffffffffffffffff16815260200190815260200160002060006101000a81548160ff0219169083151502179055505050505050620003b4565b600081519050620001a88162000332565b92915050565b600081519050620001bf816200034c565b92915050565b600081519050620001d68162000366565b92915050565b600081519050620001ed8162000380565b92915050565b60008151905062000204816200039a565b92915050565b600080600080600060a086880312156200022957620002286200032d565b5b6000620002398882890162000197565b95505060206200024c88828901620001f3565b94505060406200025f88828901620001ae565b93505060606200027288828901620001c5565b92505060806200028588828901620001dc565b9150509295509295909350565b60006200029f82620002b0565b9050919050565b6000819050919050565b600073ffffffffffffffffffffffffffffffffffffffff82169050919050565b6000819050919050565b600063ffffffff82169050919050565b600067ffffffffffffffff82169050919050565b7f4e487b7100000000000000000000000000000000000000000000000000000000600052602160045260246000fd5b600080fd5b6200033d8162000292565b81146200034957600080fd5b50565b6200035781620002a6565b81146200036357600080fd5b50565b6200037181620002d0565b81146200037d57600080fd5b50565b6200038b81620002da565b81146200039757600080fd5b50565b620003a581620002ea565b8114620003b157600080fd5b50565b60805160601c60a05160601c60c05160e05160c01c6101005160e01c61012051611bd76200041e60003960008181610aba0152610c93015260006109470152600061092401526000610903015260006108c701526000818161074a015261079e0152611bd76000f3fe6080604052600436106101185760003560e01c806353a2c19a116100a05780639062cb02116100645780639062cb02146103bc57806391ad27b4146103e5578063c1c244e814610410578063c81998261461043b578063fba0a29f1461044557610127565b806353a2c19a146102c25780635f1b0fd8146102ed5780636dcbf2a3146103185780636e04ff0d14610355578063704802751461039357610127565b80631fe543e3116100e75780631fe543e3146101ef5780633a31a76b146102185780634585e33b14610243578063473f1ddc1461026c578063531fe1281461029757610127565b80630559dd6514610131578063093c69ae1461016e5780630b5adfff14610199578063115cbaf5146101c457610127565b3661012757610125610470565b005b61012f610470565b005b34801561013d57600080fd5b5061015860048036038101906101539190611431565b610699565b60405161016591906115d0565b60405180910390f35b34801561017a57600080fd5b506101836106e1565b60405161019091906116cd565b60405180910390f35b3480156101a557600080fd5b506101ae610728565b6040516101bb91906116cd565b60405180910390f35b3480156101d057600080fd5b506101d9610732565b6040516101e691906116b2565b60405180910390f35b3480156101fb57600080fd5b506102166004803603810190610211919061148b565b610748565b005b34801561022457600080fd5b5061022d610808565b60405161023a91906116cd565b60405180910390f35b34801561024f57600080fd5b5061026a6004803603810190610265919061139b565b610812565b005b34801561027857600080fd5b50610281610a0f565b60405161028e91906115d0565b60405180910390f35b3480156102a357600080fd5b506102ac610a39565b6040516102b991906116cd565b60405180910390f35b3480156102ce57600080fd5b506102d7610a46565b6040516102e491906116cd565b60405180910390f35b3480156102f957600080fd5b50610302610a55565b60405161030f91906116cd565b60405180910390f35b34801561032457600080fd5b5061033f600480360381019061033a919061136e565b610a62565b60405161034c91906116cd565b60405180910390f35b34801561036157600080fd5b5061037c600480360381019061037791906113e8565b610a7a565b60405161038a92919061162f565b60405180910390f35b34801561039f57600080fd5b506103ba60048036038101906103b5919061136e565b610b24565b005b3480156103c857600080fd5b506103e360048036038101906103de9190611431565b610c02565b005b3480156103f157600080fd5b506103fa610c8f565b60405161040791906116cd565b60405180910390f35b34801561041c57600080fd5b50610425610cb7565b60405161043291906116cd565b60405180910390f35b610443610470565b005b34801561045157600080fd5b5061045a610cc1565b6040516104679190611614565b60405180910390f35b6003543410156104bb57346003546040517f62d1bc440000000000000000000000000000000000000000000000000000000081526004016104b29291906116e8565b60405180910390fd5b600060018111156104cf576104ce611aa0565b5b60008054906101000a900460ff1660018111156104ef576104ee611aa0565b5b14610526576040517fee0eb16d00000000000000000000000000000000000000000000000000000000815260040160405180910390fd5b6000600660003373ffffffffffffffffffffffffffffffffffffffff1673ffffffffffffffffffffffffffffffffffffffff1681526020019081526020016000205414156105d2576005339080600181540180825580915050600190039060005260206000200160009091909190916101000a81548173ffffffffffffffffffffffffffffffffffffffff021916908373ffffffffffffffffffffffffffffffffffffffff1602179055505b6000600354346105e29190611847565b905080600660003373ffffffffffffffffffffffffffffffffffffffff1673ffffffffffffffffffffffffffffffffffffffff168152602001908152602001600020600082825461063391906117f1565b92505081905550806007600082825461064c91906117f1565b925050819055503373ffffffffffffffffffffffffffffffffffffffff167f0805e1d667bddb8a95f0f09880cf94f403fb596ce79928d9f29b74203ba284d460405160405180910390a250565b6000600582815481106106af576106ae611acf565b5b9060005260206000200160009054906101000a900473ffffffffffffffffffffffffffffffffffffffff169050919050565b6000600660003373ffffffffffffffffffffffffffffffffffffffff1673ffffffffffffffffffffffffffffffffffffffff16815260200190815260200160002054905090565b6000600754905090565b60008060009054906101000a900460ff16905090565b7f000000000000000000000000000000000000000000000000000000000000000073ffffffffffffffffffffffffffffffffffffffff163373ffffffffffffffffffffffffffffffffffffffff16146107fa57337f00000000000000000000000000000000000000000000000000000000000000006040517f1cf993f40000000000000000000000000000000000000000000000000000000081526004016107f19291906115eb565b60405180910390fd5b6108048282610d15565b5050565b6000600354905090565b600061082c60405180602001604052806000815250610a7a565b50905080610899574760058054905060008054906101000a900460ff16600181111561085b5761085a611aa0565b5b6040517ffe4196c000000000000000000000000000000000000000000000000000000000815260040161089093929190611711565b60405180910390fd5b60016000806101000a81548160ff021916908360018111156108be576108bd611aa0565b5b021790555060007f000000000000000000000000000000000000000000000000000000000000000073ffffffffffffffffffffffffffffffffffffffff16635d3b1d307f00000000000000000000000000000000000000000000000000000000000000007f000000000000000000000000000000000000000000000000000000000000000060037f000000000000000000000000000000000000000000000000000000000000000060016040518663ffffffff1660e01b815260040161098895949392919061165f565b602060405180830381600087803b1580156109a257600080fd5b505af11580156109b6573d6000803e3d6000fd5b505050506040513d601f19601f820116820180604052508101906109da919061145e565b9050807fcd6e45c8998311cab7e9d4385596cac867e20a0587194b954fa3a731c93ce78b60405160405180910390a250505050565b6000600260009054906101000a900473ffffffffffffffffffffffffffffffffffffffff16905090565b6000600580549050905090565b6000600163ffffffff16905090565b6000600361ffff16905090565b60066020528060005260406000206000915090505481565b600060606000806001811115610a9357610a92611aa0565b5b60008054906101000a900460ff166001811115610ab357610ab2611aa0565b5b14905060007f000000000000000000000000000000000000000000000000000000000000000060015442610ae79190611878565b11905060008060058054905011905060008047119050838015610b075750825b8015610b105750815b8015610b195750805b955050505050915091565b600460003373ffffffffffffffffffffffffffffffffffffffff1673ffffffffffffffffffffffffffffffffffffffff16815260200190815260200160002060009054906101000a900460ff16610ba7576040517f82b4290000000000000000000000000000000000000000000000000000000000815260040160405180910390fd5b6001600460008373ffffffffffffffffffffffffffffffffffffffff1673ffffffffffffffffffffffffffffffffffffffff16815260200190815260200160002060006101000a81548160ff02191690831515021790555050565b600460003373ffffffffffffffffffffffffffffffffffffffff1673ffffffffffffffffffffffffffffffffffffffff16815260200190815260200160002060009054906101000a900460ff16610c85576040517f82b4290000000000000000000000000000000000000000000000000000000000815260040160405180910390fd5b8060038190555050565b60007f0000000000000000000000000000000000000000000000000000000000000000905090565b6000600154905090565b6000600460003373ffffffffffffffffffffffffffffffffffffffff1673ffffffffffffffffffffffffffffffffffffffff16815260200190815260200160002060009054906101000a900460ff16905090565b60006005805490501415610d55576040517f1389bd0300000000000000000000000000000000000000000000000000000000815260040160405180910390fd5b600060075467ffffffffffffffff811115610d7357610d72611afe565b5b604051908082528060200260200182016040528015610da15781602001602082028036833780820191505090505b5090506000805b600580549050811015610f0f57600060058281548110610dcb57610dca611acf565b5b9060005260206000200160009054906101000a900473ffffffffffffffffffffffffffffffffffffffff1690506000600660008373ffffffffffffffffffffffffffffffffffffffff1673ffffffffffffffffffffffffffffffffffffffff16815260200190815260200160002054905060005b81811015610eb65782868681518110610e5b57610e5a611acf565b5b602002602001019073ffffffffffffffffffffffffffffffffffffffff16908173ffffffffffffffffffffffffffffffffffffffff16815250508480610ea0906119c8565b9550508080610eae906119c8565b915050610e3f565b50600660008373ffffffffffffffffffffffffffffffffffffffff1673ffffffffffffffffffffffffffffffffffffffff1681526020019081526020016000206000905550508080610f07906119c8565b915050610da8565b506000825184600081518110610f2857610f27611acf565b5b6020026020010151610f3a9190611a11565b90506000838281518110610f5157610f50611acf565b5b6020026020010151905080600260006101000a81548173ffffffffffffffffffffffffffffffffffffffff021916908373ffffffffffffffffffffffffffffffffffffffff1602179055506000600781905550600067ffffffffffffffff811115610fbf57610fbe611afe565b5b604051908082528060200260200182016040528015610fed5781602001602082028036833780820191505090505b5060059080519060200190611003929190611124565b5060008060006101000a81548160ff0219169083600181111561102957611028611aa0565b5b02179055504260018190555060008173ffffffffffffffffffffffffffffffffffffffff164760405161105b906115bb565b60006040518083038185875af1925050503d8060008114611098576040519150601f19603f3d011682016040523d82523d6000602084013e61109d565b606091505b50509050806110d8576040517fcf4e5aa100000000000000000000000000000000000000000000000000000000815260040160405180910390fd5b8173ffffffffffffffffffffffffffffffffffffffff167f5b690ec4a06fe979403046eaeea5b3ce38524683c3001f662c8b5a829632f7df60405160405180910390a250505050505050565b82805482825590600052602060002090810192821561119d579160200282015b8281111561119c5782518260006101000a81548173ffffffffffffffffffffffffffffffffffffffff021916908373ffffffffffffffffffffffffffffffffffffffff16021790555091602001919060010190611144565b5b5090506111aa91906111ae565b5090565b5b808211156111c75760008160009055506001016111af565b5090565b60006111de6111d98461176d565b611748565b9050808382526020820190508285602086028201111561120157611200611b37565b5b60005b8581101561123157816112178882611344565b845260208401935060208301925050600181019050611204565b5050509392505050565b600061124e61124984611799565b611748565b90508281526020810184848401111561126a57611269611b3c565b5b611275848285611955565b509392505050565b60008135905061128c81611b73565b92915050565b600082601f8301126112a7576112a6611b32565b5b81356112b78482602086016111cb565b91505092915050565b60008083601f8401126112d6576112d5611b32565b5b8235905067ffffffffffffffff8111156112f3576112f2611b2d565b5b60208301915083600182028301111561130f5761130e611b37565b5b9250929050565b600082601f83011261132b5761132a611b32565b5b813561133b84826020860161123b565b91505092915050565b60008135905061135381611b8a565b92915050565b60008151905061136881611b8a565b92915050565b60006020828403121561138457611383611b46565b5b60006113928482850161127d565b91505092915050565b600080602083850312156113b2576113b1611b46565b5b600083013567ffffffffffffffff8111156113d0576113cf611b41565b5b6113dc858286016112c0565b92509250509250929050565b6000602082840312156113fe576113fd611b46565b5b600082013567ffffffffffffffff81111561141c5761141b611b41565b5b61142884828501611316565b91505092915050565b60006020828403121561144757611446611b46565b5b600061145584828501611344565b91505092915050565b60006020828403121561147457611473611b46565b5b600061148284828501611359565b91505092915050565b600080604083850312156114a2576114a1611b46565b5b60006114b085828601611344565b925050602083013567ffffffffffffffff8111156114d1576114d0611b41565b5b6114dd85828601611292565b9150509250929050565b6114f0816118ac565b82525050565b6114ff816118be565b82525050565b61150e816118ca565b82525050565b600061151f826117ca565b61152981856117d5565b9350611539818560208601611964565b61154281611b4b565b840191505092915050565b61155681611943565b82525050565b60006115696000836117e6565b915061157482611b5c565b600082019050919050565b611588816118e7565b82525050565b61159781611915565b82525050565b6115a68161191f565b82525050565b6115b58161192f565b82525050565b60006115c68261155c565b9150819050919050565b60006020820190506115e560008301846114e7565b92915050565b600060408201905061160060008301856114e7565b61160d60208301846114e7565b9392505050565b600060208201905061162960008301846114f6565b92915050565b600060408201905061164460008301856114f6565b81810360208301526116568184611514565b90509392505050565b600060a0820190506116746000830188611505565b61168160208301876115ac565b61168e604083018661157f565b61169b606083018561159d565b6116a8608083018461159d565b9695505050505050565b60006020820190506116c7600083018461154d565b92915050565b60006020820190506116e2600083018461158e565b92915050565b60006040820190506116fd600083018561158e565b61170a602083018461158e565b9392505050565b6000606082019050611726600083018661158e565b611733602083018561158e565b611740604083018461158e565b949350505050565b6000611752611763565b905061175e8282611997565b919050565b6000604051905090565b600067ffffffffffffffff82111561178857611787611afe565b5b602082029050602081019050919050565b600067ffffffffffffffff8211156117b4576117b3611afe565b5b6117bd82611b4b565b9050602081019050919050565b600081519050919050565b600082825260208201905092915050565b600081905092915050565b60006117fc82611915565b915061180783611915565b9250827fffffffffffffffffffffffffffffffffffffffffffffffffffffffffffffffff0382111561183c5761183b611a42565b5b828201905092915050565b600061185282611915565b915061185d83611915565b92508261186d5761186c611a71565b5b828204905092915050565b600061188382611915565b915061188e83611915565b9250828210156118a1576118a0611a42565b5b828203905092915050565b60006118b7826118f5565b9050919050565b60008115159050919050565b6000819050919050565b60008190506118e282611b5f565b919050565b600061ffff82169050919050565b600073ffffffffffffffffffffffffffffffffffffffff82169050919050565b6000819050919050565b600063ffffffff82169050919050565b600067ffffffffffffffff82169050919050565b600061194e826118d4565b9050919050565b82818337600083830152505050565b60005b83811015611982578082015181840152602081019050611967565b83811115611991576000848401525b50505050565b6119a082611b4b565b810181811067ffffffffffffffff821117156119bf576119be611afe565b5b80604052505050565b60006119d382611915565b91507fffffffffffffffffffffffffffffffffffffffffffffffffffffffffffffffff821415611a0657611a05611a42565b5b600182019050919050565b6000611a1c82611915565b9150611a2783611915565b925082611a3757611a36611a71565b5b828206905092915050565b7f4e487b7100000000000000000000000000000000000000000000000000000000600052601160045260246000fd5b7f4e487b7100000000000000000000000000000000000000000000000000000000600052601260045260246000fd5b7f4e487b7100000000000000000000000000000000000000000000000000000000600052602160045260246000fd5b7f4e487b7100000000000000000000000000000000000000000000000000000000600052603260045260246000fd5b7f4e487b7100000000000000000000000000000000000000000000000000000000600052604160045260246000fd5b600080fd5b600080fd5b600080fd5b600080fd5b600080fd5b600080fd5b6000601f19601f8301169050919050565b50565b60028110611b7057611b6f611aa0565b5b50565b611b7c816118ac565b8114611b8757600080fd5b50565b611b9381611915565b8114611b9e57600080fd5b5056fea2646970667358221220624d1dc307d22fa76dd7b6054c41bc91fde164f67c53d562c5abea6d41795a4c64736f6c63430008070033",
  "devdoc": {
    "author": "Patrick Collins",
    "details": "This implements the Chainlink VRF Version 2",
    "kind": "dev",
    "methods": {
      "checkUpkeep(bytes)": {
        "details": "This is the function that the Chainlink Keeper nodes call they look for `upkeepNeeded` to return True. the following should be true for this to return true: 1. The time interval has passed between raffle runs. 2. The lottery is open. 3. The contract has ETH. 4. Implicity, your subscription is funded with LINK."
      },
      "performUpkeep(bytes)": {
        "details": "Once `checkUpkeep` is returning `true`, this function is called and it kicks off a Chainlink VRF call to get a random winner."
      }
    },
    "title": "A sample Raffle Contract",
    "version": 1
  },
  "userdoc": {
    "kind": "user",
    "methods": {
      "addAdmin(address)": {
        "notice": "Setters "
      },
      "buyTickets()": {
        "notice": "Contract Functions "
      },
      "getRaffleState()": {
        "notice": "Getters "
      }
    },
    "notice": "This contract is for creating a sample raffle contract",
    "version": 1
  },
  "storageLayout": {
    "storage": [
      {
        "astId": 893,
        "contract": "contracts/Raffle.sol:Raffle",
        "label": "s_raffleState",
        "offset": 0,
        "slot": "0",
        "type": "t_enum(RaffleState)875"
      },
      {
        "astId": 895,
        "contract": "contracts/Raffle.sol:Raffle",
        "label": "s_lastTimeStamp",
        "offset": 0,
        "slot": "1",
        "type": "t_uint256"
      },
      {
        "astId": 897,
        "contract": "contracts/Raffle.sol:Raffle",
        "label": "s_recentWinner",
        "offset": 0,
        "slot": "2",
        "type": "t_address"
      },
      {
        "astId": 902,
        "contract": "contracts/Raffle.sol:Raffle",
        "label": "i_tixCostWei",
        "offset": 0,
        "slot": "3",
        "type": "t_uint256"
      },
      {
        "astId": 906,
        "contract": "contracts/Raffle.sol:Raffle",
        "label": "admins",
        "offset": 0,
        "slot": "4",
        "type": "t_mapping(t_address,t_bool)"
      },
      {
        "astId": 909,
        "contract": "contracts/Raffle.sol:Raffle",
        "label": "contestants",
        "offset": 0,
        "slot": "5",
        "type": "t_array(t_address)dyn_storage"
      },
      {
        "astId": 913,
        "contract": "contracts/Raffle.sol:Raffle",
        "label": "tickets",
        "offset": 0,
        "slot": "6",
        "type": "t_mapping(t_address,t_uint256)"
      },
      {
        "astId": 916,
        "contract": "contracts/Raffle.sol:Raffle",
        "label": "totalNumTickets",
        "offset": 0,
        "slot": "7",
        "type": "t_uint256"
      }
    ],
    "types": {
      "t_address": {
        "encoding": "inplace",
        "label": "address",
        "numberOfBytes": "20"
      },
      "t_array(t_address)dyn_storage": {
        "base": "t_address",
        "encoding": "dynamic_array",
        "label": "address[]",
        "numberOfBytes": "32"
      },
      "t_bool": {
        "encoding": "inplace",
        "label": "bool",
        "numberOfBytes": "1"
      },
      "t_enum(RaffleState)875": {
        "encoding": "inplace",
        "label": "enum Raffle.RaffleState",
        "numberOfBytes": "1"
      },
      "t_mapping(t_address,t_bool)": {
        "encoding": "mapping",
        "key": "t_address",
        "label": "mapping(address => bool)",
        "numberOfBytes": "32",
        "value": "t_bool"
      },
      "t_mapping(t_address,t_uint256)": {
        "encoding": "mapping",
        "key": "t_address",
        "label": "mapping(address => uint256)",
        "numberOfBytes": "32",
        "value": "t_uint256"
      },
      "t_uint256": {
        "encoding": "inplace",
        "label": "uint256",
        "numberOfBytes": "32"
      }
    }
  }
}