{
  "address": "0xCf7Ed3AccA5a467e9e704C703E8D87F634fB0Fc9",
  "abi": [
    {
      "inputs": [
        {
          "internalType": "address",
          "name": "vrfCoordinatorV2",
          "type": "address"
        },
        {
          "internalType": "uint64",
          "name": "subId",
          "type": "uint64"
        },
        {
          "internalType": "bytes32",
          "name": "keyHash",
          "type": "bytes32"
        },
        {
          "internalType": "uint256",
          "name": "interval",
          "type": "uint256"
        },
        {
          "internalType": "uint32",
          "name": "cbGasLimit",
          "type": "uint32"
        }
      ],
      "stateMutability": "nonpayable",
      "type": "constructor"
    },
    {
      "inputs": [],
      "name": "ErrorPayingWinner",
      "type": "error"
    },
    {
      "inputs": [
        {
          "internalType": "address",
          "name": "have",
          "type": "address"
        },
        {
          "internalType": "address",
          "name": "want",
          "type": "address"
        }
      ],
      "name": "OnlyCoordinatorCanFulfill",
      "type": "error"
    },
    {
      "inputs": [],
      "name": "RaffleHasNoBidders",
      "type": "error"
    },
    {
      "inputs": [
        {
          "internalType": "uint256",
          "name": "msgValue",
          "type": "uint256"
        },
        {
          "internalType": "uint256",
          "name": "requiredValue",
          "type": "uint256"
        }
      ],
      "name": "RaffleInsuficientFunds",
      "type": "error"
    },
    {
      "inputs": [],
      "name": "RaffleNotOpen",
      "type": "error"
    },
    {
      "inputs": [
        {
          "internalType": "uint256",
          "name": "currentBalance",
          "type": "uint256"
        },
        {
          "internalType": "uint256",
          "name": "numPlayers",
          "type": "uint256"
        },
        {
          "internalType": "uint256",
          "name": "raffleState",
          "type": "uint256"
        }
      ],
      "name": "RaffleUpkeepNotNeeded",
      "type": "error"
    },
    {
      "inputs": [],
      "name": "Unauthorized",
      "type": "error"
    },
    {
      "anonymous": false,
      "inputs": [
        {
          "indexed": true,
          "internalType": "address",
          "name": "player",
          "type": "address"
        }
      ],
      "name": "RaffleEnter",
      "type": "event"
    },
    {
      "anonymous": false,
      "inputs": [
        {
          "indexed": true,
          "internalType": "uint256",
          "name": "requestId",
          "type": "uint256"
        }
      ],
      "name": "RequestedRaffleWinner",
      "type": "event"
    },
    {
      "anonymous": false,
      "inputs": [
        {
          "indexed": true,
          "internalType": "address",
          "name": "player",
          "type": "address"
        }
      ],
      "name": "WinnerPicked",
      "type": "event"
    },
    {
      "stateMutability": "payable",
      "type": "fallback"
    },
    {
      "inputs": [
        {
          "internalType": "address",
          "name": "_newAdmin",
          "type": "address"
        }
      ],
      "name": "addAdmin",
      "outputs": [],
      "stateMutability": "nonpayable",
      "type": "function"
    },
    {
      "inputs": [],
      "name": "buyTickets",
      "outputs": [],
      "stateMutability": "payable",
      "type": "function"
    },
    {
      "inputs": [
        {
          "internalType": "uint256",
          "name": "newTixCost",
          "type": "uint256"
        }
      ],
      "name": "changeTicketCost",
      "outputs": [],
      "stateMutability": "nonpayable",
      "type": "function"
    },
    {
      "inputs": [
        {
          "internalType": "bytes",
          "name": "",
          "type": "bytes"
        }
      ],
      "name": "checkUpkeep",
      "outputs": [
        {
          "internalType": "bool",
          "name": "upkeepNeeded",
          "type": "bool"
        },
        {
          "internalType": "bytes",
          "name": "",
          "type": "bytes"
        }
      ],
      "stateMutability": "view",
      "type": "function"
    },
    {
      "inputs": [
        {
          "internalType": "uint256",
          "name": "index",
          "type": "uint256"
        }
      ],
      "name": "getContestant",
      "outputs": [
        {
          "internalType": "address",
          "name": "",
          "type": "address"
        }
      ],
      "stateMutability": "view",
      "type": "function"
    },
    {
      "inputs": [],
      "name": "getInterval",
      "outputs": [
        {
          "internalType": "uint256",
          "name": "",
          "type": "uint256"
        }
      ],
      "stateMutability": "view",
      "type": "function"
    },
    {
      "inputs": [],
      "name": "getLastTimeStamp",
      "outputs": [
        {
          "internalType": "uint256",
          "name": "",
          "type": "uint256"
        }
      ],
      "stateMutability": "view",
      "type": "function"
    },
    {
      "inputs": [],
      "name": "getNumContestants",
      "outputs": [
        {
          "internalType": "uint256",
          "name": "",
          "type": "uint256"
        }
      ],
      "stateMutability": "view",
      "type": "function"
    },
    {
      "inputs": [],
      "name": "getNumTickets",
      "outputs": [
        {
          "internalType": "uint256",
          "name": "",
          "type": "uint256"
        }
      ],
      "stateMutability": "view",
      "type": "function"
    },
    {
      "inputs": [],
      "name": "getNumWords",
      "outputs": [
        {
          "internalType": "uint256",
          "name": "",
          "type": "uint256"
        }
      ],
      "stateMutability": "pure",
      "type": "function"
    },
    {
      "inputs": [],
      "name": "getRaffleState",
      "outputs": [
        {
          "internalType": "enum Raffle.RaffleState",
          "name": "",
          "type": "uint8"
        }
      ],
      "stateMutability": "view",
      "type": "function"
    },
    {
      "inputs": [],
      "name": "getRecentWinner",
      "outputs": [
        {
          "internalType": "address",
          "name": "",
          "type": "address"
        }
      ],
      "stateMutability": "view",
      "type": "function"
    },
    {
      "inputs": [],
      "name": "getRequestConfirmations",
      "outputs": [
        {
          "internalType": "uint256",
          "name": "",
          "type": "uint256"
        }
      ],
      "stateMutability": "pure",
      "type": "function"
    },
    {
      "inputs": [],
      "name": "getTicketCost",
      "outputs": [
        {
          "internalType": "uint256",
          "name": "",
          "type": "uint256"
        }
      ],
      "stateMutability": "view",
      "type": "function"
    },
    {
      "inputs": [
        {
          "internalType": "bytes",
          "name": "",
          "type": "bytes"
        }
      ],
      "name": "performUpkeep",
      "outputs": [],
      "stateMutability": "nonpayable",
      "type": "function"
    },
    {
      "inputs": [
        {
          "internalType": "uint256",
          "name": "requestId",
          "type": "uint256"
        },
        {
          "internalType": "uint256[]",
          "name": "randomWords",
          "type": "uint256[]"
        }
      ],
      "name": "rawFulfillRandomWords",
      "outputs": [],
      "stateMutability": "nonpayable",
      "type": "function"
    },
    {
      "inputs": [
        {
          "internalType": "address",
          "name": "",
          "type": "address"
        }
      ],
      "name": "tickets",
      "outputs": [
        {
          "internalType": "uint256",
          "name": "",
          "type": "uint256"
        }
      ],
      "stateMutability": "view",
      "type": "function"
    },
    {
      "stateMutability": "payable",
      "type": "receive"
    }
  ],
  "transactionHash": "0x32ad0192b4580364096901d95c6ebdcc7aa646eedffb83441103fbcd77e2ddd3",
  "args": [
    "0x5FbDB2315678afecb367f032d93F642f64180aa3",
    "1",
    "0x79d3d8832d904592c0bf9818b621522c988bb8b0c05cdc3b15aea1b6e8db0c15",
    "30",
    "500000"
  ],
  "numDeployments": 1,
  "solcInputHash": "48085bdfc10a9a42883771186f67d3fe",
  "bytecode": "0x6101406040526611c37937e0800060035560006007553480156200002257600080fd5b5060405162001ed338038062001ed383398181016040528101906200004891906200020a565b848073ffffffffffffffffffffffffffffffffffffffff1660808173ffffffffffffffffffffffffffffffffffffffff1660601b81525050508473ffffffffffffffffffffffffffffffffffffffff1660a08173ffffffffffffffffffffffffffffffffffffffff1660601b815250508260c081815250508161012081815250508367ffffffffffffffff1660e08167ffffffffffffffff1660c01b8152505060008060006101000a81548160ff0219169083600181111562000110576200010f620002fe565b5b0217905550426001819055508063ffffffff166101008163ffffffff1660e01b815250506001600460003373ffffffffffffffffffffffffffffffffffffffff1673ffffffffffffffffffffffffffffffffffffffff16815260200190815260200160002060006101000a81548160ff0219169083151502179055505050505050620003b4565b600081519050620001a88162000332565b92915050565b600081519050620001bf816200034c565b92915050565b600081519050620001d68162000366565b92915050565b600081519050620001ed8162000380565b92915050565b60008151905062000204816200039a565b92915050565b600080600080600060a086880312156200022957620002286200032d565b5b6000620002398882890162000197565b95505060206200024c88828901620001f3565b94505060406200025f88828901620001ae565b93505060606200027288828901620001c5565b92505060806200028588828901620001dc565b9150509295509295909350565b60006200029f82620002b0565b9050919050565b6000819050919050565b600073ffffffffffffffffffffffffffffffffffffffff82169050919050565b6000819050919050565b600063ffffffff82169050919050565b600067ffffffffffffffff82169050919050565b7f4e487b7100000000000000000000000000000000000000000000000000000000600052602160045260246000fd5b600080fd5b6200033d8162000292565b81146200034957600080fd5b50565b6200035781620002a6565b81146200036357600080fd5b50565b6200037181620002d0565b81146200037d57600080fd5b50565b6200038b81620002da565b81146200039757600080fd5b50565b620003a581620002ea565b8114620003b157600080fd5b50565b60805160601c60a05160601c60c05160e05160c01c6101005160e01c61012051611ab56200041e60003960008181610a070152610be00152600061089401526000610871015260006108500152600061081401526000818161069701526106eb0152611ab56000f3fe6080604052600436106101025760003560e01c806353a2c19a11610095578063704802751161006457806370480275146103525780639062cb021461037b57806391ad27b4146103a4578063c1c244e8146103cf578063c8199826146103fa57610111565b806353a2c19a146102815780635f1b0fd8146102ac5780636dcbf2a3146102d75780636e04ff0d1461031457610111565b80633a31a76b116100d15780633a31a76b146101d75780634585e33b14610202578063473f1ddc1461022b578063531fe1281461025657610111565b80630559dd651461011b5780630b5adfff14610158578063115cbaf5146101835780631fe543e3146101ae57610111565b366101115761010f610404565b005b610119610404565b005b34801561012757600080fd5b50610142600480360381019061013d919061132a565b61062d565b60405161014f91906114c9565b60405180910390f35b34801561016457600080fd5b5061016d610675565b60405161017a91906115ab565b60405180910390f35b34801561018f57600080fd5b5061019861067f565b6040516101a59190611590565b60405180910390f35b3480156101ba57600080fd5b506101d560048036038101906101d09190611384565b610695565b005b3480156101e357600080fd5b506101ec610755565b6040516101f991906115ab565b60405180910390f35b34801561020e57600080fd5b5061022960048036038101906102249190611294565b61075f565b005b34801561023757600080fd5b5061024061095c565b60405161024d91906114c9565b60405180910390f35b34801561026257600080fd5b5061026b610986565b60405161027891906115ab565b60405180910390f35b34801561028d57600080fd5b50610296610993565b6040516102a391906115ab565b60405180910390f35b3480156102b857600080fd5b506102c16109a2565b6040516102ce91906115ab565b60405180910390f35b3480156102e357600080fd5b506102fe60048036038101906102f99190611267565b6109af565b60405161030b91906115ab565b60405180910390f35b34801561032057600080fd5b5061033b600480360381019061033691906112e1565b6109c7565b60405161034992919061150d565b60405180910390f35b34801561035e57600080fd5b5061037960048036038101906103749190611267565b610a71565b005b34801561038757600080fd5b506103a2600480360381019061039d919061132a565b610b4f565b005b3480156103b057600080fd5b506103b9610bdc565b6040516103c691906115ab565b60405180910390f35b3480156103db57600080fd5b506103e4610c04565b6040516103f191906115ab565b60405180910390f35b610402610404565b005b60035434101561044f57346003546040517f62d1bc440000000000000000000000000000000000000000000000000000000081526004016104469291906115c6565b60405180910390fd5b600060018111156104635761046261197e565b5b60008054906101000a900460ff1660018111156104835761048261197e565b5b146104ba576040517fee0eb16d00000000000000000000000000000000000000000000000000000000815260040160405180910390fd5b6000600660003373ffffffffffffffffffffffffffffffffffffffff1673ffffffffffffffffffffffffffffffffffffffff168152602001908152602001600020541415610566576005339080600181540180825580915050600190039060005260206000200160009091909190916101000a81548173ffffffffffffffffffffffffffffffffffffffff021916908373ffffffffffffffffffffffffffffffffffffffff1602179055505b6000600354346105769190611725565b905080600660003373ffffffffffffffffffffffffffffffffffffffff1673ffffffffffffffffffffffffffffffffffffffff16815260200190815260200160002060008282546105c791906116cf565b9250508190555080600760008282546105e091906116cf565b925050819055503373ffffffffffffffffffffffffffffffffffffffff167f0805e1d667bddb8a95f0f09880cf94f403fb596ce79928d9f29b74203ba284d460405160405180910390a250565b600060058281548110610643576106426119ad565b5b9060005260206000200160009054906101000a900473ffffffffffffffffffffffffffffffffffffffff169050919050565b6000600754905090565b60008060009054906101000a900460ff16905090565b7f000000000000000000000000000000000000000000000000000000000000000073ffffffffffffffffffffffffffffffffffffffff163373ffffffffffffffffffffffffffffffffffffffff161461074757337f00000000000000000000000000000000000000000000000000000000000000006040517f1cf993f400000000000000000000000000000000000000000000000000000000815260040161073e9291906114e4565b60405180910390fd5b6107518282610c0e565b5050565b6000600354905090565b6000610779604051806020016040528060008152506109c7565b509050806107e6574760058054905060008054906101000a900460ff1660018111156107a8576107a761197e565b5b6040517ffe4196c00000000000000000000000000000000000000000000000000000000081526004016107dd939291906115ef565b60405180910390fd5b60016000806101000a81548160ff0219169083600181111561080b5761080a61197e565b5b021790555060007f000000000000000000000000000000000000000000000000000000000000000073ffffffffffffffffffffffffffffffffffffffff16635d3b1d307f00000000000000000000000000000000000000000000000000000000000000007f000000000000000000000000000000000000000000000000000000000000000060037f000000000000000000000000000000000000000000000000000000000000000060016040518663ffffffff1660e01b81526004016108d595949392919061153d565b602060405180830381600087803b1580156108ef57600080fd5b505af1158015610903573d6000803e3d6000fd5b505050506040513d601f19601f820116820180604052508101906109279190611357565b9050807fcd6e45c8998311cab7e9d4385596cac867e20a0587194b954fa3a731c93ce78b60405160405180910390a250505050565b6000600260009054906101000a900473ffffffffffffffffffffffffffffffffffffffff16905090565b6000600580549050905090565b6000600163ffffffff16905090565b6000600361ffff16905090565b60066020528060005260406000206000915090505481565b6000606060008060018111156109e0576109df61197e565b5b60008054906101000a900460ff166001811115610a00576109ff61197e565b5b14905060007f000000000000000000000000000000000000000000000000000000000000000060015442610a349190611756565b11905060008060058054905011905060008047119050838015610a545750825b8015610a5d5750815b8015610a665750805b955050505050915091565b600460003373ffffffffffffffffffffffffffffffffffffffff1673ffffffffffffffffffffffffffffffffffffffff16815260200190815260200160002060009054906101000a900460ff16610af4576040517f82b4290000000000000000000000000000000000000000000000000000000000815260040160405180910390fd5b6001600460008373ffffffffffffffffffffffffffffffffffffffff1673ffffffffffffffffffffffffffffffffffffffff16815260200190815260200160002060006101000a81548160ff02191690831515021790555050565b600460003373ffffffffffffffffffffffffffffffffffffffff1673ffffffffffffffffffffffffffffffffffffffff16815260200190815260200160002060009054906101000a900460ff16610bd2576040517f82b4290000000000000000000000000000000000000000000000000000000000815260040160405180910390fd5b8060038190555050565b60007f0000000000000000000000000000000000000000000000000000000000000000905090565b6000600154905090565b60006005805490501415610c4e576040517f1389bd0300000000000000000000000000000000000000000000000000000000815260040160405180910390fd5b600060075467ffffffffffffffff811115610c6c57610c6b6119dc565b5b604051908082528060200260200182016040528015610c9a5781602001602082028036833780820191505090505b5090506000805b600580549050811015610e0857600060058281548110610cc457610cc36119ad565b5b9060005260206000200160009054906101000a900473ffffffffffffffffffffffffffffffffffffffff1690506000600660008373ffffffffffffffffffffffffffffffffffffffff1673ffffffffffffffffffffffffffffffffffffffff16815260200190815260200160002054905060005b81811015610daf5782868681518110610d5457610d536119ad565b5b602002602001019073ffffffffffffffffffffffffffffffffffffffff16908173ffffffffffffffffffffffffffffffffffffffff16815250508480610d99906118a6565b9550508080610da7906118a6565b915050610d38565b50600660008373ffffffffffffffffffffffffffffffffffffffff1673ffffffffffffffffffffffffffffffffffffffff1681526020019081526020016000206000905550508080610e00906118a6565b915050610ca1565b506000825184600081518110610e2157610e206119ad565b5b6020026020010151610e3391906118ef565b90506000838281518110610e4a57610e496119ad565b5b6020026020010151905080600260006101000a81548173ffffffffffffffffffffffffffffffffffffffff021916908373ffffffffffffffffffffffffffffffffffffffff1602179055506000600781905550600067ffffffffffffffff811115610eb857610eb76119dc565b5b604051908082528060200260200182016040528015610ee65781602001602082028036833780820191505090505b5060059080519060200190610efc92919061101d565b5060008060006101000a81548160ff02191690836001811115610f2257610f2161197e565b5b02179055504260018190555060008173ffffffffffffffffffffffffffffffffffffffff1647604051610f54906114b4565b60006040518083038185875af1925050503d8060008114610f91576040519150601f19603f3d011682016040523d82523d6000602084013e610f96565b606091505b5050905080610fd1576040517fcf4e5aa100000000000000000000000000000000000000000000000000000000815260040160405180910390fd5b8173ffffffffffffffffffffffffffffffffffffffff167f5b690ec4a06fe979403046eaeea5b3ce38524683c3001f662c8b5a829632f7df60405160405180910390a250505050505050565b828054828255906000526020600020908101928215611096579160200282015b828111156110955782518260006101000a81548173ffffffffffffffffffffffffffffffffffffffff021916908373ffffffffffffffffffffffffffffffffffffffff1602179055509160200191906001019061103d565b5b5090506110a391906110a7565b5090565b5b808211156110c05760008160009055506001016110a8565b5090565b60006110d76110d28461164b565b611626565b905080838252602082019050828560208602820111156110fa576110f9611a15565b5b60005b8581101561112a5781611110888261123d565b8452602084019350602083019250506001810190506110fd565b5050509392505050565b600061114761114284611677565b611626565b90508281526020810184848401111561116357611162611a1a565b5b61116e848285611833565b509392505050565b60008135905061118581611a51565b92915050565b600082601f8301126111a05761119f611a10565b5b81356111b08482602086016110c4565b91505092915050565b60008083601f8401126111cf576111ce611a10565b5b8235905067ffffffffffffffff8111156111ec576111eb611a0b565b5b60208301915083600182028301111561120857611207611a15565b5b9250929050565b600082601f83011261122457611223611a10565b5b8135611234848260208601611134565b91505092915050565b60008135905061124c81611a68565b92915050565b60008151905061126181611a68565b92915050565b60006020828403121561127d5761127c611a24565b5b600061128b84828501611176565b91505092915050565b600080602083850312156112ab576112aa611a24565b5b600083013567ffffffffffffffff8111156112c9576112c8611a1f565b5b6112d5858286016111b9565b92509250509250929050565b6000602082840312156112f7576112f6611a24565b5b600082013567ffffffffffffffff81111561131557611314611a1f565b5b6113218482850161120f565b91505092915050565b6000602082840312156113405761133f611a24565b5b600061134e8482850161123d565b91505092915050565b60006020828403121561136d5761136c611a24565b5b600061137b84828501611252565b91505092915050565b6000806040838503121561139b5761139a611a24565b5b60006113a98582860161123d565b925050602083013567ffffffffffffffff8111156113ca576113c9611a1f565b5b6113d68582860161118b565b9150509250929050565b6113e98161178a565b82525050565b6113f88161179c565b82525050565b611407816117a8565b82525050565b6000611418826116a8565b61142281856116b3565b9350611432818560208601611842565b61143b81611a29565b840191505092915050565b61144f81611821565b82525050565b60006114626000836116c4565b915061146d82611a3a565b600082019050919050565b611481816117c5565b82525050565b611490816117f3565b82525050565b61149f816117fd565b82525050565b6114ae8161180d565b82525050565b60006114bf82611455565b9150819050919050565b60006020820190506114de60008301846113e0565b92915050565b60006040820190506114f960008301856113e0565b61150660208301846113e0565b9392505050565b600060408201905061152260008301856113ef565b8181036020830152611534818461140d565b90509392505050565b600060a08201905061155260008301886113fe565b61155f60208301876114a5565b61156c6040830186611478565b6115796060830185611496565b6115866080830184611496565b9695505050505050565b60006020820190506115a56000830184611446565b92915050565b60006020820190506115c06000830184611487565b92915050565b60006040820190506115db6000830185611487565b6115e86020830184611487565b9392505050565b60006060820190506116046000830186611487565b6116116020830185611487565b61161e6040830184611487565b949350505050565b6000611630611641565b905061163c8282611875565b919050565b6000604051905090565b600067ffffffffffffffff821115611666576116656119dc565b5b602082029050602081019050919050565b600067ffffffffffffffff821115611692576116916119dc565b5b61169b82611a29565b9050602081019050919050565b600081519050919050565b600082825260208201905092915050565b600081905092915050565b60006116da826117f3565b91506116e5836117f3565b9250827fffffffffffffffffffffffffffffffffffffffffffffffffffffffffffffffff0382111561171a57611719611920565b5b828201905092915050565b6000611730826117f3565b915061173b836117f3565b92508261174b5761174a61194f565b5b828204905092915050565b6000611761826117f3565b915061176c836117f3565b92508282101561177f5761177e611920565b5b828203905092915050565b6000611795826117d3565b9050919050565b60008115159050919050565b6000819050919050565b60008190506117c082611a3d565b919050565b600061ffff82169050919050565b600073ffffffffffffffffffffffffffffffffffffffff82169050919050565b6000819050919050565b600063ffffffff82169050919050565b600067ffffffffffffffff82169050919050565b600061182c826117b2565b9050919050565b82818337600083830152505050565b60005b83811015611860578082015181840152602081019050611845565b8381111561186f576000848401525b50505050565b61187e82611a29565b810181811067ffffffffffffffff8211171561189d5761189c6119dc565b5b80604052505050565b60006118b1826117f3565b91507fffffffffffffffffffffffffffffffffffffffffffffffffffffffffffffffff8214156118e4576118e3611920565b5b600182019050919050565b60006118fa826117f3565b9150611905836117f3565b9250826119155761191461194f565b5b828206905092915050565b7f4e487b7100000000000000000000000000000000000000000000000000000000600052601160045260246000fd5b7f4e487b7100000000000000000000000000000000000000000000000000000000600052601260045260246000fd5b7f4e487b7100000000000000000000000000000000000000000000000000000000600052602160045260246000fd5b7f4e487b7100000000000000000000000000000000000000000000000000000000600052603260045260246000fd5b7f4e487b7100000000000000000000000000000000000000000000000000000000600052604160045260246000fd5b600080fd5b600080fd5b600080fd5b600080fd5b600080fd5b600080fd5b6000601f19601f8301169050919050565b50565b60028110611a4e57611a4d61197e565b5b50565b611a5a8161178a565b8114611a6557600080fd5b50565b611a71816117f3565b8114611a7c57600080fd5b5056fea264697066735822122031ec88913cfb170be85a1fd9534e76f03da060cddd59ea54c15a52efddc62c4764736f6c63430008070033",
  "devdoc": {
    "author": "Patrick Collins",
    "details": "This implements the Chainlink VRF Version 2",
    "kind": "dev",
    "methods": {
      "checkUpkeep(bytes)": {
        "details": "This is the function that the Chainlink Keeper nodes call they look for `upkeepNeeded` to return True. the following should be true for this to return true: 1. The time interval has passed between raffle runs. 2. The lottery is open. 3. The contract has ETH. 4. Implicity, your subscription is funded with LINK."
      },
      "performUpkeep(bytes)": {
        "details": "Once `checkUpkeep` is returning `true`, this function is called and it kicks off a Chainlink VRF call to get a random winner."
      }
    },
    "title": "A sample Raffle Contract",
    "version": 1
  },
  "userdoc": {
    "kind": "user",
    "methods": {
      "addAdmin(address)": {
        "notice": "Setters "
      },
      "buyTickets()": {
        "notice": "Contract Functions "
      },
      "getRaffleState()": {
        "notice": "Getters "
      }
    },
    "notice": "This contract is for creating a sample raffle contract",
    "version": 1
  },
  "storageLayout": {
    "storage": [
      {
        "astId": 893,
        "contract": "contracts/Raffle.sol:Raffle",
        "label": "s_raffleState",
        "offset": 0,
        "slot": "0",
        "type": "t_enum(RaffleState)875"
      },
      {
        "astId": 895,
        "contract": "contracts/Raffle.sol:Raffle",
        "label": "s_lastTimeStamp",
        "offset": 0,
        "slot": "1",
        "type": "t_uint256"
      },
      {
        "astId": 897,
        "contract": "contracts/Raffle.sol:Raffle",
        "label": "s_recentWinner",
        "offset": 0,
        "slot": "2",
        "type": "t_address"
      },
      {
        "astId": 902,
        "contract": "contracts/Raffle.sol:Raffle",
        "label": "i_tixCostWei",
        "offset": 0,
        "slot": "3",
        "type": "t_uint256"
      },
      {
        "astId": 906,
        "contract": "contracts/Raffle.sol:Raffle",
        "label": "admins",
        "offset": 0,
        "slot": "4",
        "type": "t_mapping(t_address,t_bool)"
      },
      {
        "astId": 909,
        "contract": "contracts/Raffle.sol:Raffle",
        "label": "contestants",
        "offset": 0,
        "slot": "5",
        "type": "t_array(t_address)dyn_storage"
      },
      {
        "astId": 913,
        "contract": "contracts/Raffle.sol:Raffle",
        "label": "tickets",
        "offset": 0,
        "slot": "6",
        "type": "t_mapping(t_address,t_uint256)"
      },
      {
        "astId": 916,
        "contract": "contracts/Raffle.sol:Raffle",
        "label": "totalNumTickets",
        "offset": 0,
        "slot": "7",
        "type": "t_uint256"
      }
    ],
    "types": {
      "t_address": {
        "encoding": "inplace",
        "label": "address",
        "numberOfBytes": "20"
      },
      "t_array(t_address)dyn_storage": {
        "base": "t_address",
        "encoding": "dynamic_array",
        "label": "address[]",
        "numberOfBytes": "32"
      },
      "t_bool": {
        "encoding": "inplace",
        "label": "bool",
        "numberOfBytes": "1"
      },
      "t_enum(RaffleState)875": {
        "encoding": "inplace",
        "label": "enum Raffle.RaffleState",
        "numberOfBytes": "1"
      },
      "t_mapping(t_address,t_bool)": {
        "encoding": "mapping",
        "key": "t_address",
        "label": "mapping(address => bool)",
        "numberOfBytes": "32",
        "value": "t_bool"
      },
      "t_mapping(t_address,t_uint256)": {
        "encoding": "mapping",
        "key": "t_address",
        "label": "mapping(address => uint256)",
        "numberOfBytes": "32",
        "value": "t_uint256"
      },
      "t_uint256": {
        "encoding": "inplace",
        "label": "uint256",
        "numberOfBytes": "32"
      }
    }
  }
}