{
  "address": "0xCf7Ed3AccA5a467e9e704C703E8D87F634fB0Fc9",
  "abi": [
    {
      "inputs": [
        {
          "internalType": "address",
          "name": "vrfCoordinatorV2",
          "type": "address"
        },
        {
          "internalType": "uint64",
          "name": "subId",
          "type": "uint64"
        },
        {
          "internalType": "bytes32",
          "name": "keyHash",
          "type": "bytes32"
        },
        {
          "internalType": "uint256",
          "name": "interval",
          "type": "uint256"
        },
        {
          "internalType": "uint32",
          "name": "cbGasLimit",
          "type": "uint32"
        }
      ],
      "stateMutability": "nonpayable",
      "type": "constructor"
    },
    {
      "inputs": [],
      "name": "ErrorPayingWinner",
      "type": "error"
    },
    {
      "inputs": [
        {
          "internalType": "address",
          "name": "have",
          "type": "address"
        },
        {
          "internalType": "address",
          "name": "want",
          "type": "address"
        }
      ],
      "name": "OnlyCoordinatorCanFulfill",
      "type": "error"
    },
    {
      "inputs": [
        {
          "internalType": "uint256",
          "name": "msgValue",
          "type": "uint256"
        },
        {
          "internalType": "uint256",
          "name": "requiredValue",
          "type": "uint256"
        }
      ],
      "name": "RaffleInsuficientFunds",
      "type": "error"
    },
    {
      "inputs": [],
      "name": "RaffleNotOpen",
      "type": "error"
    },
    {
      "inputs": [
        {
          "internalType": "uint256",
          "name": "currentBalance",
          "type": "uint256"
        },
        {
          "internalType": "uint256",
          "name": "numPlayers",
          "type": "uint256"
        },
        {
          "internalType": "uint256",
          "name": "raffleState",
          "type": "uint256"
        }
      ],
      "name": "RaffleUpkeepNotNeeded",
      "type": "error"
    },
    {
      "inputs": [],
      "name": "Unauthorized",
      "type": "error"
    },
    {
      "anonymous": false,
      "inputs": [
        {
          "indexed": true,
          "internalType": "address",
          "name": "player",
          "type": "address"
        }
      ],
      "name": "RaffleEnter",
      "type": "event"
    },
    {
      "anonymous": false,
      "inputs": [
        {
          "indexed": true,
          "internalType": "uint256",
          "name": "requestId",
          "type": "uint256"
        }
      ],
      "name": "RequestedRaffleWinner",
      "type": "event"
    },
    {
      "anonymous": false,
      "inputs": [
        {
          "indexed": true,
          "internalType": "address",
          "name": "player",
          "type": "address"
        }
      ],
      "name": "WinnerPicked",
      "type": "event"
    },
    {
      "stateMutability": "payable",
      "type": "fallback"
    },
    {
      "inputs": [
        {
          "internalType": "address",
          "name": "_newAdmin",
          "type": "address"
        }
      ],
      "name": "addAdmin",
      "outputs": [],
      "stateMutability": "nonpayable",
      "type": "function"
    },
    {
      "inputs": [],
      "name": "buyTickets",
      "outputs": [],
      "stateMutability": "payable",
      "type": "function"
    },
    {
      "inputs": [
        {
          "internalType": "uint256",
          "name": "newTixCost",
          "type": "uint256"
        }
      ],
      "name": "changeTicketCost",
      "outputs": [],
      "stateMutability": "nonpayable",
      "type": "function"
    },
    {
      "inputs": [
        {
          "internalType": "bytes",
          "name": "",
          "type": "bytes"
        }
      ],
      "name": "checkUpkeep",
      "outputs": [
        {
          "internalType": "bool",
          "name": "upkeepNeeded",
          "type": "bool"
        },
        {
          "internalType": "bytes",
          "name": "",
          "type": "bytes"
        }
      ],
      "stateMutability": "view",
      "type": "function"
    },
    {
      "inputs": [
        {
          "internalType": "uint256",
          "name": "index",
          "type": "uint256"
        }
      ],
      "name": "getContestant",
      "outputs": [
        {
          "internalType": "address",
          "name": "",
          "type": "address"
        }
      ],
      "stateMutability": "view",
      "type": "function"
    },
    {
      "inputs": [],
      "name": "getInterval",
      "outputs": [
        {
          "internalType": "uint256",
          "name": "",
          "type": "uint256"
        }
      ],
      "stateMutability": "view",
      "type": "function"
    },
    {
      "inputs": [],
      "name": "getLastTimeStamp",
      "outputs": [
        {
          "internalType": "uint256",
          "name": "",
          "type": "uint256"
        }
      ],
      "stateMutability": "view",
      "type": "function"
    },
    {
      "inputs": [],
      "name": "getNumContestants",
      "outputs": [
        {
          "internalType": "uint256",
          "name": "",
          "type": "uint256"
        }
      ],
      "stateMutability": "view",
      "type": "function"
    },
    {
      "inputs": [],
      "name": "getNumWords",
      "outputs": [
        {
          "internalType": "uint256",
          "name": "",
          "type": "uint256"
        }
      ],
      "stateMutability": "pure",
      "type": "function"
    },
    {
      "inputs": [],
      "name": "getRaffleState",
      "outputs": [
        {
          "internalType": "enum Raffle.RaffleState",
          "name": "",
          "type": "uint8"
        }
      ],
      "stateMutability": "view",
      "type": "function"
    },
    {
      "inputs": [],
      "name": "getRecentWinner",
      "outputs": [
        {
          "internalType": "address",
          "name": "",
          "type": "address"
        }
      ],
      "stateMutability": "view",
      "type": "function"
    },
    {
      "inputs": [],
      "name": "getRequestConfirmations",
      "outputs": [
        {
          "internalType": "uint256",
          "name": "",
          "type": "uint256"
        }
      ],
      "stateMutability": "pure",
      "type": "function"
    },
    {
      "inputs": [],
      "name": "getTicketCost",
      "outputs": [
        {
          "internalType": "uint256",
          "name": "",
          "type": "uint256"
        }
      ],
      "stateMutability": "view",
      "type": "function"
    },
    {
      "inputs": [
        {
          "internalType": "bytes",
          "name": "",
          "type": "bytes"
        }
      ],
      "name": "performUpkeep",
      "outputs": [],
      "stateMutability": "nonpayable",
      "type": "function"
    },
    {
      "inputs": [
        {
          "internalType": "uint256",
          "name": "requestId",
          "type": "uint256"
        },
        {
          "internalType": "uint256[]",
          "name": "randomWords",
          "type": "uint256[]"
        }
      ],
      "name": "rawFulfillRandomWords",
      "outputs": [],
      "stateMutability": "nonpayable",
      "type": "function"
    },
    {
      "inputs": [
        {
          "internalType": "address",
          "name": "",
          "type": "address"
        }
      ],
      "name": "tickets",
      "outputs": [
        {
          "internalType": "uint256",
          "name": "",
          "type": "uint256"
        }
      ],
      "stateMutability": "view",
      "type": "function"
    },
    {
      "stateMutability": "payable",
      "type": "receive"
    }
  ],
  "transactionHash": "0xf6435783561ce1346f6ecb67abade73a531fe5a718c0754801d3ea83f3748f57",
  "args": [
    "0x5FbDB2315678afecb367f032d93F642f64180aa3",
    "1",
    "0x79d3d8832d904592c0bf9818b621522c988bb8b0c05cdc3b15aea1b6e8db0c15",
    "30",
    "500000"
  ],
  "numDeployments": 1,
  "solcInputHash": "dfb6eae31528dcc0f8fa3b63a22eab1d",
  "bytecode": "0x610140604052670de0b6b3a764000060035560006007553480156200002357600080fd5b5060405162001e0338038062001e0383398181016040528101906200004991906200020b565b848073ffffffffffffffffffffffffffffffffffffffff1660808173ffffffffffffffffffffffffffffffffffffffff1660601b81525050508473ffffffffffffffffffffffffffffffffffffffff1660a08173ffffffffffffffffffffffffffffffffffffffff1660601b815250508260c081815250508161012081815250508367ffffffffffffffff1660e08167ffffffffffffffff1660c01b8152505060008060006101000a81548160ff02191690836001811115620001115762000110620002ff565b5b0217905550426001819055508063ffffffff166101008163ffffffff1660e01b815250506001600560003373ffffffffffffffffffffffffffffffffffffffff1673ffffffffffffffffffffffffffffffffffffffff16815260200190815260200160002060006101000a81548160ff0219169083151502179055505050505050620003b5565b600081519050620001a98162000333565b92915050565b600081519050620001c0816200034d565b92915050565b600081519050620001d78162000367565b92915050565b600081519050620001ee8162000381565b92915050565b60008151905062000205816200039b565b92915050565b600080600080600060a086880312156200022a57620002296200032e565b5b60006200023a8882890162000198565b95505060206200024d88828901620001f4565b94505060406200026088828901620001af565b93505060606200027388828901620001c6565b92505060806200028688828901620001dd565b9150509295509295909350565b6000620002a082620002b1565b9050919050565b6000819050919050565b600073ffffffffffffffffffffffffffffffffffffffff82169050919050565b6000819050919050565b600063ffffffff82169050919050565b600067ffffffffffffffff82169050919050565b7f4e487b7100000000000000000000000000000000000000000000000000000000600052602160045260246000fd5b600080fd5b6200033e8162000293565b81146200034a57600080fd5b50565b6200035881620002a7565b81146200036457600080fd5b50565b6200037281620002d1565b81146200037e57600080fd5b50565b6200038c81620002db565b81146200039857600080fd5b50565b620003a681620002eb565b8114620003b257600080fd5b50565b60805160601c60a05160601c60c05160e05160c01c6101005160e01c610120516119e46200041f6000396000818161097e0152610b570152600061080b015260006107e8015260006107c70152600061078b01526000818161060e015261066201526119e46000f3fe6080604052600436106100f75760003560e01c80635f1b0fd81161008a5780639062cb02116100595780639062cb021461034557806391ad27b41461036e578063c1c244e814610399578063c8199826146103c457610106565b80635f1b0fd8146102765780636dcbf2a3146102a15780636e04ff0d146102de578063704802751461031c57610106565b80634585e33b116100c65780634585e33b146101cc578063473f1ddc146101f5578063531fe1281461022057806353a2c19a1461024b57610106565b80630559dd6514610110578063115cbaf51461014d5780631fe543e3146101785780633a31a76b146101a157610106565b36610106576101046103ce565b005b61010e6103ce565b005b34801561011c57600080fd5b5061013760048036038101906101329190611259565b6105ae565b60405161014491906113f8565b60405180910390f35b34801561015957600080fd5b506101626105f6565b60405161016f91906114bf565b60405180910390f35b34801561018457600080fd5b5061019f600480360381019061019a91906112b3565b61060c565b005b3480156101ad57600080fd5b506101b66106cc565b6040516101c391906114da565b60405180910390f35b3480156101d857600080fd5b506101f360048036038101906101ee91906111c3565b6106d6565b005b34801561020157600080fd5b5061020a6108d3565b60405161021791906113f8565b60405180910390f35b34801561022c57600080fd5b506102356108fd565b60405161024291906114da565b60405180910390f35b34801561025757600080fd5b5061026061090a565b60405161026d91906114da565b60405180910390f35b34801561028257600080fd5b5061028b610919565b60405161029891906114da565b60405180910390f35b3480156102ad57600080fd5b506102c860048036038101906102c39190611196565b610926565b6040516102d591906114da565b60405180910390f35b3480156102ea57600080fd5b5061030560048036038101906103009190611210565b61093e565b60405161031392919061143c565b60405180910390f35b34801561032857600080fd5b50610343600480360381019061033e9190611196565b6109e8565b005b34801561035157600080fd5b5061036c60048036038101906103679190611259565b610ac6565b005b34801561037a57600080fd5b50610383610b53565b60405161039091906114da565b60405180910390f35b3480156103a557600080fd5b506103ae610b7b565b6040516103bb91906114da565b60405180910390f35b6103cc6103ce565b005b60035434101561041957346003546040517f62d1bc440000000000000000000000000000000000000000000000000000000081526004016104109291906114f5565b60405180910390fd5b6000600181111561042d5761042c6118ad565b5b60008054906101000a900460ff16600181111561044d5761044c6118ad565b5b14610484576040517fee0eb16d00000000000000000000000000000000000000000000000000000000815260040160405180910390fd5b6000600354346104949190611654565b905080600660003373ffffffffffffffffffffffffffffffffffffffff1673ffffffffffffffffffffffffffffffffffffffff16815260200190815260200160002060008282546104e591906115fe565b9250508190555080600760008282546104fe91906115fe565b925050819055506004339080600181540180825580915050600190039060005260206000200160009091909190916101000a81548173ffffffffffffffffffffffffffffffffffffffff021916908373ffffffffffffffffffffffffffffffffffffffff1602179055503373ffffffffffffffffffffffffffffffffffffffff167f0805e1d667bddb8a95f0f09880cf94f403fb596ce79928d9f29b74203ba284d460405160405180910390a250565b6000600482815481106105c4576105c36118dc565b5b9060005260206000200160009054906101000a900473ffffffffffffffffffffffffffffffffffffffff169050919050565b60008060009054906101000a900460ff16905090565b7f000000000000000000000000000000000000000000000000000000000000000073ffffffffffffffffffffffffffffffffffffffff163373ffffffffffffffffffffffffffffffffffffffff16146106be57337f00000000000000000000000000000000000000000000000000000000000000006040517f1cf993f40000000000000000000000000000000000000000000000000000000081526004016106b5929190611413565b60405180910390fd5b6106c88282610b85565b5050565b6000600354905090565b60006106f06040518060200160405280600081525061093e565b5090508061075d574760048054905060008054906101000a900460ff16600181111561071f5761071e6118ad565b5b6040517ffe4196c00000000000000000000000000000000000000000000000000000000081526004016107549392919061151e565b60405180910390fd5b60016000806101000a81548160ff02191690836001811115610782576107816118ad565b5b021790555060007f000000000000000000000000000000000000000000000000000000000000000073ffffffffffffffffffffffffffffffffffffffff16635d3b1d307f00000000000000000000000000000000000000000000000000000000000000007f000000000000000000000000000000000000000000000000000000000000000060037f000000000000000000000000000000000000000000000000000000000000000060016040518663ffffffff1660e01b815260040161084c95949392919061146c565b602060405180830381600087803b15801561086657600080fd5b505af115801561087a573d6000803e3d6000fd5b505050506040513d601f19601f8201168201806040525081019061089e9190611286565b9050807fcd6e45c8998311cab7e9d4385596cac867e20a0587194b954fa3a731c93ce78b60405160405180910390a250505050565b6000600260009054906101000a900473ffffffffffffffffffffffffffffffffffffffff16905090565b6000600480549050905090565b6000600163ffffffff16905090565b6000600361ffff16905090565b60066020528060005260406000206000915090505481565b600060606000806001811115610957576109566118ad565b5b60008054906101000a900460ff166001811115610977576109766118ad565b5b14905060007f0000000000000000000000000000000000000000000000000000000000000000600154426109ab9190611685565b119050600080600480549050119050600080471190508380156109cb5750825b80156109d45750815b80156109dd5750805b955050505050915091565b600560003373ffffffffffffffffffffffffffffffffffffffff1673ffffffffffffffffffffffffffffffffffffffff16815260200190815260200160002060009054906101000a900460ff16610a6b576040517f82b4290000000000000000000000000000000000000000000000000000000000815260040160405180910390fd5b6001600560008373ffffffffffffffffffffffffffffffffffffffff1673ffffffffffffffffffffffffffffffffffffffff16815260200190815260200160002060006101000a81548160ff02191690831515021790555050565b600560003373ffffffffffffffffffffffffffffffffffffffff1673ffffffffffffffffffffffffffffffffffffffff16815260200190815260200160002060009054906101000a900460ff16610b49576040517f82b4290000000000000000000000000000000000000000000000000000000000815260040160405180910390fd5b8060038190555050565b60007f0000000000000000000000000000000000000000000000000000000000000000905090565b6000600154905090565b600060075467ffffffffffffffff811115610ba357610ba261190b565b5b604051908082528060200260200182016040528015610bd15781602001602082028036833780820191505090505b5090506000805b600480549050811015610d3f57600060048281548110610bfb57610bfa6118dc565b5b9060005260206000200160009054906101000a900473ffffffffffffffffffffffffffffffffffffffff1690506000600660008373ffffffffffffffffffffffffffffffffffffffff1673ffffffffffffffffffffffffffffffffffffffff16815260200190815260200160002054905060005b81811015610ce65782868681518110610c8b57610c8a6118dc565b5b602002602001019073ffffffffffffffffffffffffffffffffffffffff16908173ffffffffffffffffffffffffffffffffffffffff16815250508480610cd0906117d5565b9550508080610cde906117d5565b915050610c6f565b50600660008373ffffffffffffffffffffffffffffffffffffffff1673ffffffffffffffffffffffffffffffffffffffff1681526020019081526020016000206000905550508080610d37906117d5565b915050610bd8565b506000825184600081518110610d5857610d576118dc565b5b6020026020010151610d6a919061181e565b90506000838281518110610d8157610d806118dc565b5b6020026020010151905080600260006101000a81548173ffffffffffffffffffffffffffffffffffffffff021916908373ffffffffffffffffffffffffffffffffffffffff160217905550600067ffffffffffffffff811115610de757610de661190b565b5b604051908082528060200260200182016040528015610e155781602001602082028036833780820191505090505b5060049080519060200190610e2b929190610f4c565b5060008060006101000a81548160ff02191690836001811115610e5157610e506118ad565b5b02179055504260018190555060008173ffffffffffffffffffffffffffffffffffffffff1647604051610e83906113e3565b60006040518083038185875af1925050503d8060008114610ec0576040519150601f19603f3d011682016040523d82523d6000602084013e610ec5565b606091505b5050905080610f00576040517fcf4e5aa100000000000000000000000000000000000000000000000000000000815260040160405180910390fd5b8173ffffffffffffffffffffffffffffffffffffffff167f5b690ec4a06fe979403046eaeea5b3ce38524683c3001f662c8b5a829632f7df60405160405180910390a250505050505050565b828054828255906000526020600020908101928215610fc5579160200282015b82811115610fc45782518260006101000a81548173ffffffffffffffffffffffffffffffffffffffff021916908373ffffffffffffffffffffffffffffffffffffffff16021790555091602001919060010190610f6c565b5b509050610fd29190610fd6565b5090565b5b80821115610fef576000816000905550600101610fd7565b5090565b60006110066110018461157a565b611555565b9050808382526020820190508285602086028201111561102957611028611944565b5b60005b85811015611059578161103f888261116c565b84526020840193506020830192505060018101905061102c565b5050509392505050565b6000611076611071846115a6565b611555565b90508281526020810184848401111561109257611091611949565b5b61109d848285611762565b509392505050565b6000813590506110b481611980565b92915050565b600082601f8301126110cf576110ce61193f565b5b81356110df848260208601610ff3565b91505092915050565b60008083601f8401126110fe576110fd61193f565b5b8235905067ffffffffffffffff81111561111b5761111a61193a565b5b60208301915083600182028301111561113757611136611944565b5b9250929050565b600082601f8301126111535761115261193f565b5b8135611163848260208601611063565b91505092915050565b60008135905061117b81611997565b92915050565b60008151905061119081611997565b92915050565b6000602082840312156111ac576111ab611953565b5b60006111ba848285016110a5565b91505092915050565b600080602083850312156111da576111d9611953565b5b600083013567ffffffffffffffff8111156111f8576111f761194e565b5b611204858286016110e8565b92509250509250929050565b60006020828403121561122657611225611953565b5b600082013567ffffffffffffffff8111156112445761124361194e565b5b6112508482850161113e565b91505092915050565b60006020828403121561126f5761126e611953565b5b600061127d8482850161116c565b91505092915050565b60006020828403121561129c5761129b611953565b5b60006112aa84828501611181565b91505092915050565b600080604083850312156112ca576112c9611953565b5b60006112d88582860161116c565b925050602083013567ffffffffffffffff8111156112f9576112f861194e565b5b611305858286016110ba565b9150509250929050565b611318816116b9565b82525050565b611327816116cb565b82525050565b611336816116d7565b82525050565b6000611347826115d7565b61135181856115e2565b9350611361818560208601611771565b61136a81611958565b840191505092915050565b61137e81611750565b82525050565b60006113916000836115f3565b915061139c82611969565b600082019050919050565b6113b0816116f4565b82525050565b6113bf81611722565b82525050565b6113ce8161172c565b82525050565b6113dd8161173c565b82525050565b60006113ee82611384565b9150819050919050565b600060208201905061140d600083018461130f565b92915050565b6000604082019050611428600083018561130f565b611435602083018461130f565b9392505050565b6000604082019050611451600083018561131e565b8181036020830152611463818461133c565b90509392505050565b600060a082019050611481600083018861132d565b61148e60208301876113d4565b61149b60408301866113a7565b6114a860608301856113c5565b6114b560808301846113c5565b9695505050505050565b60006020820190506114d46000830184611375565b92915050565b60006020820190506114ef60008301846113b6565b92915050565b600060408201905061150a60008301856113b6565b61151760208301846113b6565b9392505050565b600060608201905061153360008301866113b6565b61154060208301856113b6565b61154d60408301846113b6565b949350505050565b600061155f611570565b905061156b82826117a4565b919050565b6000604051905090565b600067ffffffffffffffff8211156115955761159461190b565b5b602082029050602081019050919050565b600067ffffffffffffffff8211156115c1576115c061190b565b5b6115ca82611958565b9050602081019050919050565b600081519050919050565b600082825260208201905092915050565b600081905092915050565b600061160982611722565b915061161483611722565b9250827fffffffffffffffffffffffffffffffffffffffffffffffffffffffffffffffff038211156116495761164861184f565b5b828201905092915050565b600061165f82611722565b915061166a83611722565b92508261167a5761167961187e565b5b828204905092915050565b600061169082611722565b915061169b83611722565b9250828210156116ae576116ad61184f565b5b828203905092915050565b60006116c482611702565b9050919050565b60008115159050919050565b6000819050919050565b60008190506116ef8261196c565b919050565b600061ffff82169050919050565b600073ffffffffffffffffffffffffffffffffffffffff82169050919050565b6000819050919050565b600063ffffffff82169050919050565b600067ffffffffffffffff82169050919050565b600061175b826116e1565b9050919050565b82818337600083830152505050565b60005b8381101561178f578082015181840152602081019050611774565b8381111561179e576000848401525b50505050565b6117ad82611958565b810181811067ffffffffffffffff821117156117cc576117cb61190b565b5b80604052505050565b60006117e082611722565b91507fffffffffffffffffffffffffffffffffffffffffffffffffffffffffffffffff8214156118135761181261184f565b5b600182019050919050565b600061182982611722565b915061183483611722565b9250826118445761184361187e565b5b828206905092915050565b7f4e487b7100000000000000000000000000000000000000000000000000000000600052601160045260246000fd5b7f4e487b7100000000000000000000000000000000000000000000000000000000600052601260045260246000fd5b7f4e487b7100000000000000000000000000000000000000000000000000000000600052602160045260246000fd5b7f4e487b7100000000000000000000000000000000000000000000000000000000600052603260045260246000fd5b7f4e487b7100000000000000000000000000000000000000000000000000000000600052604160045260246000fd5b600080fd5b600080fd5b600080fd5b600080fd5b600080fd5b600080fd5b6000601f19601f8301169050919050565b50565b6002811061197d5761197c6118ad565b5b50565b611989816116b9565b811461199457600080fd5b50565b6119a081611722565b81146119ab57600080fd5b5056fea2646970667358221220e6135bb0ffcd95315592d33dbdaf32aaebd8f41e1eab8242f8b5f8e220eacfd564736f6c63430008070033",
  "devdoc": {
    "author": "Patrick Collins",
    "details": "This implements the Chainlink VRF Version 2",
    "kind": "dev",
    "methods": {
      "checkUpkeep(bytes)": {
        "details": "This is the function that the Chainlink Keeper nodes call they look for `upkeepNeeded` to return True. the following should be true for this to return true: 1. The time interval has passed between raffle runs. 2. The lottery is open. 3. The contract has ETH. 4. Implicity, your subscription is funded with LINK."
      },
      "performUpkeep(bytes)": {
        "details": "Once `checkUpkeep` is returning `true`, this function is called and it kicks off a Chainlink VRF call to get a random winner."
      }
    },
    "title": "A sample Raffle Contract",
    "version": 1
  },
  "userdoc": {
    "kind": "user",
    "methods": {
      "addAdmin(address)": {
        "notice": "Setters "
      },
      "buyTickets()": {
        "notice": "Contract Functions "
      },
      "getRaffleState()": {
        "notice": "Getters "
      }
    },
    "notice": "This contract is for creating a sample raffle contract",
    "version": 1
  },
  "storageLayout": {
    "storage": [
      {
        "astId": 217,
        "contract": "contracts/Raffle.sol:Raffle",
        "label": "s_raffleState",
        "offset": 0,
        "slot": "0",
        "type": "t_enum(RaffleState)199"
      },
      {
        "astId": 219,
        "contract": "contracts/Raffle.sol:Raffle",
        "label": "s_lastTimeStamp",
        "offset": 0,
        "slot": "1",
        "type": "t_uint256"
      },
      {
        "astId": 221,
        "contract": "contracts/Raffle.sol:Raffle",
        "label": "s_recentWinner",
        "offset": 0,
        "slot": "2",
        "type": "t_address"
      },
      {
        "astId": 226,
        "contract": "contracts/Raffle.sol:Raffle",
        "label": "i_tixCostWei",
        "offset": 0,
        "slot": "3",
        "type": "t_uint256"
      },
      {
        "astId": 229,
        "contract": "contracts/Raffle.sol:Raffle",
        "label": "contestants",
        "offset": 0,
        "slot": "4",
        "type": "t_array(t_address)dyn_storage"
      },
      {
        "astId": 233,
        "contract": "contracts/Raffle.sol:Raffle",
        "label": "admins",
        "offset": 0,
        "slot": "5",
        "type": "t_mapping(t_address,t_bool)"
      },
      {
        "astId": 237,
        "contract": "contracts/Raffle.sol:Raffle",
        "label": "tickets",
        "offset": 0,
        "slot": "6",
        "type": "t_mapping(t_address,t_uint256)"
      },
      {
        "astId": 240,
        "contract": "contracts/Raffle.sol:Raffle",
        "label": "totalNumTickets",
        "offset": 0,
        "slot": "7",
        "type": "t_uint256"
      }
    ],
    "types": {
      "t_address": {
        "encoding": "inplace",
        "label": "address",
        "numberOfBytes": "20"
      },
      "t_array(t_address)dyn_storage": {
        "base": "t_address",
        "encoding": "dynamic_array",
        "label": "address[]",
        "numberOfBytes": "32"
      },
      "t_bool": {
        "encoding": "inplace",
        "label": "bool",
        "numberOfBytes": "1"
      },
      "t_enum(RaffleState)199": {
        "encoding": "inplace",
        "label": "enum Raffle.RaffleState",
        "numberOfBytes": "1"
      },
      "t_mapping(t_address,t_bool)": {
        "encoding": "mapping",
        "key": "t_address",
        "label": "mapping(address => bool)",
        "numberOfBytes": "32",
        "value": "t_bool"
      },
      "t_mapping(t_address,t_uint256)": {
        "encoding": "mapping",
        "key": "t_address",
        "label": "mapping(address => uint256)",
        "numberOfBytes": "32",
        "value": "t_uint256"
      },
      "t_uint256": {
        "encoding": "inplace",
        "label": "uint256",
        "numberOfBytes": "32"
      }
    }
  }
}