{
  "address": "0x36Ad3399cb4dA6439497be6F4163aD4bCB759dd9",
  "abi": [
    {
      "inputs": [
        {
          "internalType": "address",
          "name": "vrfCoordV2",
          "type": "address"
        },
        {
          "internalType": "bytes32",
          "name": "keyHash",
          "type": "bytes32"
        },
        {
          "internalType": "uint64",
          "name": "subId",
          "type": "uint64"
        },
        {
          "internalType": "uint32",
          "name": "cbGasLimit",
          "type": "uint32"
        },
        {
          "internalType": "uint256",
          "name": "interval",
          "type": "uint256"
        }
      ],
      "stateMutability": "nonpayable",
      "type": "constructor"
    },
    {
      "inputs": [],
      "name": "ErrorPayingWinner",
      "type": "error"
    },
    {
      "inputs": [],
      "name": "InsufficientFee",
      "type": "error"
    },
    {
      "inputs": [],
      "name": "LottoNotOpen",
      "type": "error"
    },
    {
      "inputs": [
        {
          "internalType": "address",
          "name": "have",
          "type": "address"
        },
        {
          "internalType": "address",
          "name": "want",
          "type": "address"
        }
      ],
      "name": "OnlyCoordinatorCanFulfill",
      "type": "error"
    },
    {
      "inputs": [],
      "name": "Unauthorized",
      "type": "error"
    },
    {
      "inputs": [
        {
          "internalType": "uint256",
          "name": "contractBal",
          "type": "uint256"
        },
        {
          "internalType": "uint256",
          "name": "contestants",
          "type": "uint256"
        }
      ],
      "name": "upkeepNotNeeded",
      "type": "error"
    },
    {
      "anonymous": false,
      "inputs": [
        {
          "indexed": true,
          "internalType": "address",
          "name": "player",
          "type": "address"
        }
      ],
      "name": "LottoEnter",
      "type": "event"
    },
    {
      "anonymous": false,
      "inputs": [
        {
          "indexed": true,
          "internalType": "uint256",
          "name": "reqId",
          "type": "uint256"
        }
      ],
      "name": "ReqLottoWinner",
      "type": "event"
    },
    {
      "stateMutability": "payable",
      "type": "fallback"
    },
    {
      "inputs": [
        {
          "internalType": "address",
          "name": "_newAdmin",
          "type": "address"
        }
      ],
      "name": "addAdmin",
      "outputs": [],
      "stateMutability": "nonpayable",
      "type": "function"
    },
    {
      "inputs": [],
      "name": "buyTickets",
      "outputs": [],
      "stateMutability": "payable",
      "type": "function"
    },
    {
      "inputs": [
        {
          "internalType": "uint256",
          "name": "tixCostUSD",
          "type": "uint256"
        }
      ],
      "name": "changeTicketCost",
      "outputs": [],
      "stateMutability": "nonpayable",
      "type": "function"
    },
    {
      "inputs": [
        {
          "internalType": "bytes",
          "name": "",
          "type": "bytes"
        }
      ],
      "name": "checkUpkeep",
      "outputs": [
        {
          "internalType": "bool",
          "name": "upkeepNeeded",
          "type": "bool"
        },
        {
          "internalType": "bytes",
          "name": "",
          "type": "bytes"
        }
      ],
      "stateMutability": "nonpayable",
      "type": "function"
    },
    {
      "inputs": [
        {
          "internalType": "uint256",
          "name": "",
          "type": "uint256"
        }
      ],
      "name": "contestants",
      "outputs": [
        {
          "internalType": "address",
          "name": "",
          "type": "address"
        }
      ],
      "stateMutability": "view",
      "type": "function"
    },
    {
      "inputs": [],
      "name": "getTicketCost",
      "outputs": [
        {
          "internalType": "uint256",
          "name": "",
          "type": "uint256"
        }
      ],
      "stateMutability": "view",
      "type": "function"
    },
    {
      "inputs": [
        {
          "internalType": "bytes",
          "name": "",
          "type": "bytes"
        }
      ],
      "name": "performUpkeep",
      "outputs": [],
      "stateMutability": "nonpayable",
      "type": "function"
    },
    {
      "inputs": [
        {
          "internalType": "uint256",
          "name": "requestId",
          "type": "uint256"
        },
        {
          "internalType": "uint256[]",
          "name": "randomWords",
          "type": "uint256[]"
        }
      ],
      "name": "rawFulfillRandomWords",
      "outputs": [],
      "stateMutability": "nonpayable",
      "type": "function"
    },
    {
      "inputs": [
        {
          "internalType": "address",
          "name": "",
          "type": "address"
        }
      ],
      "name": "tickets",
      "outputs": [
        {
          "internalType": "uint256",
          "name": "",
          "type": "uint256"
        }
      ],
      "stateMutability": "view",
      "type": "function"
    },
    {
      "stateMutability": "payable",
      "type": "receive"
    }
  ],
  "transactionHash": "0xa3f468b2c2560de11731c94f08a0d50f29030d7ac20772dd7a4f89386f4ececd",
  "args": [
    "0x2Ca8E0C643bDe4C2E08ab1fA0da3401AdAD7734D",
    "0x79d3d8832d904592c0bf9818b621522c988bb8b0c05cdc3b15aea1b6e8db0c15",
    "3541",
    "500000",
    "30"
  ],
  "numDeployments": 1,
  "solcInputHash": "ac4d820785ecd7d5618d2f0d5a516195",
  "bytecode": "0x610120604052670de0b6b3a764000060035560006007553480156200002357600080fd5b5060405162001e3e38038062001e3e833981810160405281019062000049919062000209565b848073ffffffffffffffffffffffffffffffffffffffff1660808173ffffffffffffffffffffffffffffffffffffffff1660601b81525050508473ffffffffffffffffffffffffffffffffffffffff1660a08173ffffffffffffffffffffffffffffffffffffffff1660601b815250508360c081815250508267ffffffffffffffff1660e08167ffffffffffffffff1660c01b815250508163ffffffff166101008163ffffffff1660e01b815250506001600460003373ffffffffffffffffffffffffffffffffffffffff1673ffffffffffffffffffffffffffffffffffffffff16815260200190815260200160002060006101000a81548160ff02191690831515021790555060008060006101000a81548160ff02191690836001811115620001785762000177620002fd565b5b021790555042600181905550806002819055505050505050620003b3565b600081519050620001a78162000331565b92915050565b600081519050620001be816200034b565b92915050565b600081519050620001d58162000365565b92915050565b600081519050620001ec816200037f565b92915050565b600081519050620002038162000399565b92915050565b600080600080600060a086880312156200022857620002276200032c565b5b6000620002388882890162000196565b95505060206200024b88828901620001ad565b94505060406200025e88828901620001f2565b93505060606200027188828901620001db565b92505060806200028488828901620001c4565b9150509295509295909350565b60006200029e82620002af565b9050919050565b6000819050919050565b600073ffffffffffffffffffffffffffffffffffffffff82169050919050565b6000819050919050565b600063ffffffff82169050919050565b600067ffffffffffffffff82169050919050565b7f4e487b7100000000000000000000000000000000000000000000000000000000600052602160045260246000fd5b600080fd5b6200033c8162000291565b81146200034857600080fd5b50565b6200035681620002a5565b81146200036257600080fd5b50565b6200037081620002cf565b81146200037c57600080fd5b50565b6200038a81620002d9565b81146200039657600080fd5b50565b620003a481620002e9565b8114620003b057600080fd5b50565b60805160601c60a05160601c60c05160e05160c01c6101005160e01c611a336200040b60003960006105f0015260006105cd015260006105ac0152600061057001526000818161041401526104680152611a336000f3fe60806040526004361061008a5760003560e01c80636e04ff0d116100595780636e04ff0d1461015d578063704802751461019b5780639062cb02146101c4578063c8199826146101ed578063dfd50f52146101f757610099565b80631fe543e3146100a35780633a31a76b146100cc5780634585e33b146100f75780636dcbf2a31461012057610099565b3661009957610097610234565b005b6100a1610234565b005b3480156100af57600080fd5b506100ca60048036038101906100c59190611162565b610412565b005b3480156100d857600080fd5b506100e16104d2565b6040516100ee91906113da565b60405180910390f35b34801561010357600080fd5b5061011e60048036038101906101199190611072565b6104dc565b005b34801561012c57600080fd5b5061014760048036038101906101429190611045565b6106b8565b60405161015491906113da565b60405180910390f35b34801561016957600080fd5b50610184600480360381019061017f91906110bf565b6106d0565b604051610192929190611357565b60405180910390f35b3480156101a757600080fd5b506101c260048036038101906101bd9190611045565b61075c565b005b3480156101d057600080fd5b506101eb60048036038101906101e69190611108565b61083a565b005b6101f5610234565b005b34801561020357600080fd5b5061021e60048036038101906102199190611108565b6108da565b60405161022b9190611313565b60405180910390f35b60006001811115610248576102476118e2565b5b60008054906101000a900460ff166001811115610268576102676118e2565b5b1461029f576040517ff379fee000000000000000000000000000000000000000000000000000000000815260040160405180910390fd5b60006102aa34610919565b905060035481116102e7576040517f025dbdd400000000000000000000000000000000000000000000000000000000815260040160405180910390fd5b6000600354826102f7919061151d565b905080600660003373ffffffffffffffffffffffffffffffffffffffff1673ffffffffffffffffffffffffffffffffffffffff168152602001908152602001600020600082825461034891906114c7565b92505081905550806007600082825461036191906114c7565b925050819055506005339080600181540180825580915050600190039060005260206000200160009091909190916101000a81548173ffffffffffffffffffffffffffffffffffffffff021916908373ffffffffffffffffffffffffffffffffffffffff1602179055503373ffffffffffffffffffffffffffffffffffffffff167f1dcd09d5d34186d758ca3a0b597a773e80b5b1febddac88410eced5d743cc7f660405160405180910390a25050565b7f000000000000000000000000000000000000000000000000000000000000000073ffffffffffffffffffffffffffffffffffffffff163373ffffffffffffffffffffffffffffffffffffffff16146104c457337f00000000000000000000000000000000000000000000000000000000000000006040517f1cf993f40000000000000000000000000000000000000000000000000000000081526004016104bb92919061132e565b60405180910390fd5b6104ce8282610953565b5050565b6000600354905090565b60006104f6604051806020016040528060008152506106d0565b5090508061054257476005805490506040517fc77eb77e0000000000000000000000000000000000000000000000000000000081526004016105399291906113f5565b60405180910390fd5b60016000806101000a81548160ff02191690836001811115610567576105666118e2565b5b021790555060007f000000000000000000000000000000000000000000000000000000000000000073ffffffffffffffffffffffffffffffffffffffff16635d3b1d307f00000000000000000000000000000000000000000000000000000000000000007f000000000000000000000000000000000000000000000000000000000000000060037f000000000000000000000000000000000000000000000000000000000000000060016040518663ffffffff1660e01b8152600401610631959493929190611387565b602060405180830381600087803b15801561064b57600080fd5b505af115801561065f573d6000803e3d6000fd5b505050506040513d601f19601f820116820180604052508101906106839190611135565b9050807f0ee3f72c0ee4fb4cb6f7c4aa378ffcb502946e93f61c72c227748a4d927806a660405160405180910390a250505050565b60066020528060005260406000206000915090505481565b6000606060008060018111156106e9576106e86118e2565b5b60008054906101000a900460ff166001811115610709576107086118e2565b5b14905060006002546001544261071f91906116bf565b1190506000806005805490501190506000804711905083801561073f5750825b80156107485750815b80156107515750805b955050505050915091565b600460003373ffffffffffffffffffffffffffffffffffffffff1673ffffffffffffffffffffffffffffffffffffffff16815260200190815260200160002060009054906101000a900460ff166107df576040517f82b4290000000000000000000000000000000000000000000000000000000000815260040160405180910390fd5b6001600460008373ffffffffffffffffffffffffffffffffffffffff1673ffffffffffffffffffffffffffffffffffffffff16815260200190815260200160002060006101000a81548160ff02191690831515021790555050565b600460003373ffffffffffffffffffffffffffffffffffffffff1673ffffffffffffffffffffffffffffffffffffffff16815260200190815260200160002060009054906101000a900460ff166108bd576040517f82b4290000000000000000000000000000000000000000000000000000000000815260040160405180910390fd5b670de0b6b3a7640000816108d19190611665565b60038190555050565b600581815481106108ea57600080fd5b906000526020600020016000915054906101000a900473ffffffffffffffffffffffffffffffffffffffff1681565b600080610924610d19565b90506000670de0b6b3a7640000848361093d9190611665565b610947919061151d565b90508092505050919050565b600460003373ffffffffffffffffffffffffffffffffffffffff1673ffffffffffffffffffffffffffffffffffffffff16815260200190815260200160002060009054906101000a900460ff166109d6576040517f82b4290000000000000000000000000000000000000000000000000000000000815260040160405180910390fd5b600060075467ffffffffffffffff8111156109f4576109f3611940565b5b604051908082528060200260200182016040528015610a225781602001602082028036833780820191505090505b5090506000805b600580549050811015610b9057600060058281548110610a4c57610a4b611911565b5b9060005260206000200160009054906101000a900473ffffffffffffffffffffffffffffffffffffffff1690506000600660008373ffffffffffffffffffffffffffffffffffffffff1673ffffffffffffffffffffffffffffffffffffffff16815260200190815260200160002054905060005b81811015610b375782868681518110610adc57610adb611911565b5b602002602001019073ffffffffffffffffffffffffffffffffffffffff16908173ffffffffffffffffffffffffffffffffffffffff16815250508480610b219061180a565b9550508080610b2f9061180a565b915050610ac0565b50600660008373ffffffffffffffffffffffffffffffffffffffff1673ffffffffffffffffffffffffffffffffffffffff1681526020019081526020016000206000905550508080610b889061180a565b915050610a29565b506000825184600081518110610ba957610ba8611911565b5b6020026020010151610bbb9190611853565b90506000838281518110610bd257610bd1611911565b5b60200260200101519050600067ffffffffffffffff811115610bf757610bf6611940565b5b604051908082528060200260200182016040528015610c255781602001602082028036833780820191505090505b5060059080519060200190610c3b929190610dd1565b5060008060006101000a81548160ff02191690836001811115610c6157610c606118e2565b5b02179055504260018190555060008173ffffffffffffffffffffffffffffffffffffffff1647604051610c93906112fe565b60006040518083038185875af1925050503d8060008114610cd0576040519150601f19603f3d011682016040523d82523d6000602084013e610cd5565b606091505b5050905080610d10576040517fcf4e5aa100000000000000000000000000000000000000000000000000000000815260040160405180910390fd5b50505050505050565b60008073d4a33860578de61dbabdc8bfdb98fd742fa7028e905060008173ffffffffffffffffffffffffffffffffffffffff1663feaf968c6040518163ffffffff1660e01b815260040160a06040518083038186803b158015610d7b57600080fd5b505afa158015610d8f573d6000803e3d6000fd5b505050506040513d601f19601f82011682018060405250810190610db391906111be565b5050509150506402540be40081610dca919061154e565b9250505090565b828054828255906000526020600020908101928215610e4a579160200282015b82811115610e495782518260006101000a81548173ffffffffffffffffffffffffffffffffffffffff021916908373ffffffffffffffffffffffffffffffffffffffff16021790555091602001919060010190610df1565b5b509050610e579190610e5b565b5090565b5b80821115610e74576000816000905550600101610e5c565b5090565b6000610e8b610e8684611443565b61141e565b90508083825260208201905082856020860282011115610eae57610ead611979565b5b60005b85811015610ede5781610ec48882611006565b845260208401935060208301925050600181019050610eb1565b5050509392505050565b6000610efb610ef68461146f565b61141e565b905082815260208101848484011115610f1757610f1661197e565b5b610f22848285611797565b509392505050565b600081359050610f39816119a1565b92915050565b600082601f830112610f5457610f53611974565b5b8135610f64848260208601610e78565b91505092915050565b60008083601f840112610f8357610f82611974565b5b8235905067ffffffffffffffff811115610fa057610f9f61196f565b5b602083019150836001820283011115610fbc57610fbb611979565b5b9250929050565b600082601f830112610fd857610fd7611974565b5b8135610fe8848260208601610ee8565b91505092915050565b600081519050611000816119b8565b92915050565b600081359050611015816119cf565b92915050565b60008151905061102a816119cf565b92915050565b60008151905061103f816119e6565b92915050565b60006020828403121561105b5761105a611988565b5b600061106984828501610f2a565b91505092915050565b6000806020838503121561108957611088611988565b5b600083013567ffffffffffffffff8111156110a7576110a6611983565b5b6110b385828601610f6d565b92509250509250929050565b6000602082840312156110d5576110d4611988565b5b600082013567ffffffffffffffff8111156110f3576110f2611983565b5b6110ff84828501610fc3565b91505092915050565b60006020828403121561111e5761111d611988565b5b600061112c84828501611006565b91505092915050565b60006020828403121561114b5761114a611988565b5b60006111598482850161101b565b91505092915050565b6000806040838503121561117957611178611988565b5b600061118785828601611006565b925050602083013567ffffffffffffffff8111156111a8576111a7611983565b5b6111b485828601610f3f565b9150509250929050565b600080600080600060a086880312156111da576111d9611988565b5b60006111e888828901611030565b95505060206111f988828901610ff1565b945050604061120a8882890161101b565b935050606061121b8882890161101b565b925050608061122c88828901611030565b9150509295509295909350565b611242816116f3565b82525050565b61125181611705565b82525050565b61126081611711565b82525050565b6000611271826114a0565b61127b81856114ab565b935061128b8185602086016117a6565b6112948161198d565b840191505092915050565b60006112ac6000836114bc565b91506112b78261199e565b600082019050919050565b6112cb81611725565b82525050565b6112da81611753565b82525050565b6112e98161175d565b82525050565b6112f88161176d565b82525050565b60006113098261129f565b9150819050919050565b60006020820190506113286000830184611239565b92915050565b60006040820190506113436000830185611239565b6113506020830184611239565b9392505050565b600060408201905061136c6000830185611248565b818103602083015261137e8184611266565b90509392505050565b600060a08201905061139c6000830188611257565b6113a960208301876112ef565b6113b660408301866112c2565b6113c360608301856112e0565b6113d060808301846112e0565b9695505050505050565b60006020820190506113ef60008301846112d1565b92915050565b600060408201905061140a60008301856112d1565b61141760208301846112d1565b9392505050565b6000611428611439565b905061143482826117d9565b919050565b6000604051905090565b600067ffffffffffffffff82111561145e5761145d611940565b5b602082029050602081019050919050565b600067ffffffffffffffff82111561148a57611489611940565b5b6114938261198d565b9050602081019050919050565b600081519050919050565b600082825260208201905092915050565b600081905092915050565b60006114d282611753565b91506114dd83611753565b9250827fffffffffffffffffffffffffffffffffffffffffffffffffffffffffffffffff0382111561151257611511611884565b5b828201905092915050565b600061152882611753565b915061153383611753565b925082611543576115426118b3565b5b828204905092915050565b60006115598261171b565b91506115648361171b565b9250827f7fffffffffffffffffffffffffffffffffffffffffffffffffffffffffffffff04821160008413600084131616156115a3576115a2611884565b5b817f800000000000000000000000000000000000000000000000000000000000000005831260008412600084131616156115e0576115df611884565b5b827f8000000000000000000000000000000000000000000000000000000000000000058212600084136000841216161561161d5761161c611884565b5b827f7fffffffffffffffffffffffffffffffffffffffffffffffffffffffffffffff058212600084126000841216161561165a57611659611884565b5b828202905092915050565b600061167082611753565b915061167b83611753565b9250817fffffffffffffffffffffffffffffffffffffffffffffffffffffffffffffffff04831182151516156116b4576116b3611884565b5b828202905092915050565b60006116ca82611753565b91506116d583611753565b9250828210156116e8576116e7611884565b5b828203905092915050565b60006116fe82611733565b9050919050565b60008115159050919050565b6000819050919050565b6000819050919050565b600061ffff82169050919050565b600073ffffffffffffffffffffffffffffffffffffffff82169050919050565b6000819050919050565b600063ffffffff82169050919050565b600067ffffffffffffffff82169050919050565b600069ffffffffffffffffffff82169050919050565b82818337600083830152505050565b60005b838110156117c45780820151818401526020810190506117a9565b838111156117d3576000848401525b50505050565b6117e28261198d565b810181811067ffffffffffffffff8211171561180157611800611940565b5b80604052505050565b600061181582611753565b91507fffffffffffffffffffffffffffffffffffffffffffffffffffffffffffffffff82141561184857611847611884565b5b600182019050919050565b600061185e82611753565b915061186983611753565b925082611879576118786118b3565b5b828206905092915050565b7f4e487b7100000000000000000000000000000000000000000000000000000000600052601160045260246000fd5b7f4e487b7100000000000000000000000000000000000000000000000000000000600052601260045260246000fd5b7f4e487b7100000000000000000000000000000000000000000000000000000000600052602160045260246000fd5b7f4e487b7100000000000000000000000000000000000000000000000000000000600052603260045260246000fd5b7f4e487b7100000000000000000000000000000000000000000000000000000000600052604160045260246000fd5b600080fd5b600080fd5b600080fd5b600080fd5b600080fd5b600080fd5b6000601f19601f8301169050919050565b50565b6119aa816116f3565b81146119b557600080fd5b50565b6119c18161171b565b81146119cc57600080fd5b50565b6119d881611753565b81146119e357600080fd5b50565b6119ef81611781565b81146119fa57600080fd5b5056fea264697066735822122057de2f856e85b200fe12f81c844f18e7abfa63071f713a3c2a8117adcfbddcbc64736f6c63430008070033",
  "devdoc": {
    "kind": "dev",
    "methods": {},
    "version": 1
  },
  "userdoc": {
    "kind": "user",
    "methods": {
      "checkUpkeep(bytes)": {
        "notice": "Chainlink automation nodes call this function to see if `upkeepNeeded` is True These should be true before you return true: 1. Time interval should have passed 2. Lottery should have at least 1 player & some ETH in the contract 3. Chainlink subscription should be funded 4. Lotto should be \"open\" for purchase. (We need to \"close\" it whilst calculating the winner, since that may take some time)"
      }
    },
    "version": 1
  },
  "storageLayout": {
    "storage": [
      {
        "astId": 1225,
        "contract": "contracts/Lotto.sol:Lotto",
        "label": "s_lottoState",
        "offset": 0,
        "slot": "0",
        "type": "t_enum(LottoState)1207"
      },
      {
        "astId": 1227,
        "contract": "contracts/Lotto.sol:Lotto",
        "label": "s_lastTimeStamp",
        "offset": 0,
        "slot": "1",
        "type": "t_uint256"
      },
      {
        "astId": 1229,
        "contract": "contracts/Lotto.sol:Lotto",
        "label": "s_interval",
        "offset": 0,
        "slot": "2",
        "type": "t_uint256"
      },
      {
        "astId": 1232,
        "contract": "contracts/Lotto.sol:Lotto",
        "label": "i_tixCostUSD",
        "offset": 0,
        "slot": "3",
        "type": "t_uint256"
      },
      {
        "astId": 1236,
        "contract": "contracts/Lotto.sol:Lotto",
        "label": "admins",
        "offset": 0,
        "slot": "4",
        "type": "t_mapping(t_address,t_bool)"
      },
      {
        "astId": 1239,
        "contract": "contracts/Lotto.sol:Lotto",
        "label": "contestants",
        "offset": 0,
        "slot": "5",
        "type": "t_array(t_address)dyn_storage"
      },
      {
        "astId": 1243,
        "contract": "contracts/Lotto.sol:Lotto",
        "label": "tickets",
        "offset": 0,
        "slot": "6",
        "type": "t_mapping(t_address,t_uint256)"
      },
      {
        "astId": 1246,
        "contract": "contracts/Lotto.sol:Lotto",
        "label": "totalNumTickets",
        "offset": 0,
        "slot": "7",
        "type": "t_uint256"
      }
    ],
    "types": {
      "t_address": {
        "encoding": "inplace",
        "label": "address",
        "numberOfBytes": "20"
      },
      "t_array(t_address)dyn_storage": {
        "base": "t_address",
        "encoding": "dynamic_array",
        "label": "address[]",
        "numberOfBytes": "32"
      },
      "t_bool": {
        "encoding": "inplace",
        "label": "bool",
        "numberOfBytes": "1"
      },
      "t_enum(LottoState)1207": {
        "encoding": "inplace",
        "label": "enum Lotto.LottoState",
        "numberOfBytes": "1"
      },
      "t_mapping(t_address,t_bool)": {
        "encoding": "mapping",
        "key": "t_address",
        "label": "mapping(address => bool)",
        "numberOfBytes": "32",
        "value": "t_bool"
      },
      "t_mapping(t_address,t_uint256)": {
        "encoding": "mapping",
        "key": "t_address",
        "label": "mapping(address => uint256)",
        "numberOfBytes": "32",
        "value": "t_uint256"
      },
      "t_uint256": {
        "encoding": "inplace",
        "label": "uint256",
        "numberOfBytes": "32"
      }
    }
  }
}